:020000040800F2
:1000000038110020D5020008D73C00089F3A0008AC
:10001000D53C0008F11E0008054300080000000060
:10002000000000000000000000000000DB3C0008B1
:100030001520000800000000D93C0008253E0008FB
:10004000EF020008EF020008EF020008EF020008CC
:10005000EF020008EF020008EF020008EF020008BC
:10006000EF020008EF020008EF020008EF020008AC
:10007000EF020008EF020008EF020008EF0200089C
:10008000591F0008EF020008EF020008EF02000805
:10009000EF020008EF020008EF020008EF0200087C
:1000A000EF020008EF020008EF020008EF0200086C
:1000B000EF020008EF020008EF020008EF0200085C
:1000C000EF020008EF020008EF020008EF0200084C
:1000D000EF020008E1420008ED420008F942000882
:1000E000EF020008EF020008EF020008EF0200082C
:1000F000EF020008EF020008EF020008EF0200081C
:10010000EF020008EF020008EF020008EF0200080B
:10011000EF020008EF020008EF020008EF020008FB
:10012000651F0008EF020008EF020008EF02000858
:10013000EF020008EF020008EF020008EF020008DB
:10014000EF020008EF020008EF020008EF020008CB
:10015000EF020008EF020008EF020008EF020008BB
:10016000EF020008EF020008EF020008EF020008AB
:10017000EF020008EF020008EF0200080000000094
:10018000EF020008EF02000800F002F800F092F819
:100190000AA090E8000C82448344AAF10107DA45E2
:1001A00001D100F087F8AFF2090EBAE80F0013F0A2
:1001B000010F18BFFB1A43F001031847A0440000C9
:1001C000C0440000103A24BF78C878C1FAD852075A
:1001D00024BF30C830C144BF04680C6070470000C1
:1001E0000023002400250026103A28BF78C1FBD840
:1001F000520728BF30C148BF0B6070476E2900F01E
:100200004782702900F09183662904F07081652986
:1002100004F06D81672904F06A81612904F0698125
:1002200003681B0A28BF41F08001692900F0F481AE
:10023000642900F0F181752900F0EE816F2900F04A
:100240001E83782900F05D83E92900F0B982E42952
:1002500000F0B682F52900F0B382EF2900F01B838D
:10026000F82900F05C830368DB0928BF41F08001B6
:10027000632901F05F80732901F06480E32901F0B4
:100280006F80F32901F07480002070471FB504F0DF
:1002900029F901F0BFF804000020002104F00CF956
:1002A000401C60600020002104F0F0F8E0601FBDF9
:1002B00010B510BD01F080F81146FFF7E7FF04F01C
:1002C00051F801F05DF903B4FFF7F2FF03BC01F050
:1002D00065F900000948804709480047FEE7FEE746
:1002E000FEE7FEE7FEE7FEE7FEE7FEE7FEE7FEE7E6
:1002F00004480549054A064B70470000B93E00080E
:1003000089010008380B002038110020380D00202A
:10031000380D002053EA020C00F069802DE9F04B03
:100320004FF00006002B1FBFB3FA83F503FA05F464
:1003300024FA05F65E4012BF1643B2FA82F502FABD
:1003400005F4C5F120051EBF22FA05FC44EA0C04A1
:10035000203556EA044C4FEA144418BF641C4FF091
:1003600000084FF00009904271EB030C39D30029CB
:1003700019BFB1FA81F701FA07F6B0FA80F700FA6F
:1003800007F6C7F120071EBF20FA07FC46EA0C0655
:100390002037B6FBF4FCA7EB0507103F07F01F0B57
:1003A000CBF120060CFA0BFB2CFA06F644BFB34641
:1003B0000026202FA4BF5E464FF0000B5BEA060C20
:1003C00008BF4FF0010B19EB0B09ABFB027C48EBAC
:1003D0000608C01B06FB02CC0BFB03CC71EB0C0127
:1003E000C1E70B46024641464846BDE8F08B13B5CF
:1003F0004FF000004FF00001AFF30080BDE81C405B
:10040000704700007CB51D4616460C00009001D0D8
:100410002044401E074B7B442A46694601903046E3
:1004200000F04FF905461CB10020694600F05CF968
:1004300028467CBDD90200004FF000020429C0F01C
:10044000128010F0030C00F01B80CCF1040CBCF106
:10045000020F18BF00F8012BA8BF20F8022BA1EB58
:100460000C0100F00DB85FEAC17C24BF00F8012B3D
:1004700000F8012B48BF00F8012B70474FF0000235
:1004800000B5134694469646203922BFA0E80C508A
:10049000A0E80C50B1F12001BFF4F7AF090728BF65
:1004A000A0E80C5048BF0CC05DF804EB890028BFE1
:1004B00040F8042B08BF704748BF20F8022B11F00A
:1004C000804F18BF00F8012B704700004FF0013C2F
:1004D00050F8042B51F8043B9A4221D1A2EB0C03B3
:1004E000934313EACC1317D150F8042B51F8043B73
:1004F0009A4215D1A2EB0C03934313EACC130BD110
:1005000050F8042B51F8043B9A4209D1A2EB0C039A
:10051000934313EACC13DBD04FF00000704700BFC9
:10052000D01A01BAB1FA81F101F0180122FA01F0F2
:10053000CB40C1F12001DBB2C0B2C01A2CFA01F3EA
:10054000D11A914311EAC311E6D170477047704741
:10055000704770B5044685690068C10601D530262C
:1005600000E02026C00707D070BDD4E90121304645
:100570009047206A401C20626D1EF6D570BD70B594
:10058000044685690078C00707D170BDD4E9012110
:1005900020209047206A401C20626D1EF6D570BD59
:1005A00009684A0501D540B27047C905FCD500B2BB
:1005B000704709684A0501D5C0B27047C905FCD526
:1005C00080B2704770B50C460546012A05D02878E0
:1005D000800600D5EA69002302E0012305E05B1CE8
:1005E000934202D2E05C0028F9D1A869E618C01A4B
:1005F000A861286A184428622846FFF7AAFF04E089
:10060000D5E9012114F8010B9047B442F8D32846EC
:10061000FFF7B5FF70BD00002DE9F041064600244C
:1006200010687529314616A510D0FFF7B9FF0028CC
:1006300002DA404213A507E031688A0701D512A506
:1006400002E0490704D511A5012401E0FFF7B1FF3D
:1006500000210A2206F1240709E0B0FBF2FCB0FBFE
:10066000F2F302FB1C00303078541846491C002875
:10067000F3D123462A463046BDE8F04100F069BA7E
:10068000000000002D0000002B00000020000000F2
:1006900011680268006A530501D508700AE0D305A5
:1006A00001D5088006E0130603D5C217C1E9000290
:1006B00000E008600120704701694A1C0261087867
:1006C000704700B58FB0CDE9013100210591054992
:1006D0007944CDE903101146684600F031F90FB0B6
:1006E00000BD0000E5FFFFFF0A6802F8010B0A6089
:1006F0007047D1E900239A4202D2531C0B6010705C
:10070000704700002DE9FF5F15468A460446DFF872
:10071000AC80F8440027D8E900103E46CDE900102F
:1007200010E03AF816106A4602A800F025FE411CB7
:1007300007D02178890603D5E269391891420DD88E
:100740000744761C2078800602D5E069B84205DDB2
:10075000AE42E6DB3AF816000028E2D1A069C01BE1
:10076000A0612046FFF7F5FED8E90010CDE90010A2
:10077000002017E03AF818106A4602A800F0FCFDC5
:10078000B0F1FF3F81460BD000250DF1080B05E0CD
:10079000D4E901211BF8050090476D1C4D45F7D3A6
:1007A00008F10100B0428046E4DB206A3844206250
:1007B0002046FFF7E4FEBDE8FF9F0000023E000078
:1007C0002DE9F0418046D21D22F007020025D2E932
:1007D0000002F52915A614D0011E72F1000106DAF7
:1007E0000023D0EB030063EB020211A608E0D8F867
:1007F00000108B0701D50FA602E0490701D50EA610
:1008000001251146002408F1240704E000F05CF9FA
:1008100030323A55641C50EA0102F7D12B46324679
:1008200021464046BDE8F04100F093B900000000C9
:100830002D0000002B0000002000000030B400213B
:1008400000F1240408E002F00705D208303542EA3E
:100850004372DB086554491C52EA0305F3D104686E
:10086000002310A2250707D5A40600D421B1C4692E
:1008700001230DA2641EC46130BC00F06AB910B53A
:10088000044621461068FFF794FE02462046BDE864
:1008900010400023D2E7D21D22F00701D1E9002346
:1008A000CCE700000000000030000000F0B40D466E
:1008B0000188090502D5214C7C4402E01F4C7C4490
:1008C0000E34002100F1240608E002F00F0712099F
:1008D000E75D42EA03721B097754491C52EA030799
:1008E000F3D102780023120704D5702D06D009B188
:1008F000022311342246F0BC00F02BB9012310343E
:10090000F8E770B504460D4621461068FFF751FE22
:10091000024629462046BDE870400023C6E7D21DA6
:1009200022F00703D3E90023C0E70368126843F00D
:10093000200303600823C3610023B7E7643C000081
:100940002DE9F05F894604464FF0000ADFF874B1E4
:10095000FB44C0F820A02046E1688847002874D0F6
:10096000252806D0D4E901219047206A401C206246
:10097000F1E700265F462046E168884720280546C3
:1009800007DB312D05D2781910F8200C08B1064389
:10099000F1E7B00701D526F00406C4F81CA0002733
:1009A000C4F818A02A2D09D0284603F0D4FC38B387
:1009B00004EB8708303DC8F8185019E059F8041BBB
:1009C000204604EB87029161E1688847012F0546C4
:1009D00018D1E069002820DA26F020061DE0D8F8BA
:1009E000180000EB800005EB40003038C8F8180014
:1009F0002046E1688847054603F0ADFC0028EED1AB
:100A0000012F0AD02E2D08D12046E16888477F1C8F
:100A10000546022F46F02006C4DBA069002803DA51
:100A2000404246F00106A061F00701D026F0100612
:100A30006C2D0BD0682D09D04C2D39D06A2D35D0B6
:100A4000742D35D07A2D33D016E038E0E1682F468A
:100A500020468847B842054609D16C2F26D04FF46E
:100A60008060E168064320468847054604E06C2F15
:100A70001AD04FF4807006430DB3A5F14100192838
:100A800002D8203546F400664A46294620462660AC
:100A90004E46FFF7B3FB80B101280BD0F61D26F0C0
:100AA000070000F1080956E74020E4E78020D8E776
:100AB0000020D6E706F104094DE7284652E7206AF0
:100AC000BDE8F09FF43B000030B5B0F10A024FEAF8
:100AD000900E71F100034EEA817EB0EB0E0061EBE7
:100AE00091014FEA101E4EEA017E10EB0E0041EB21
:100AF00011114FEA102E4EEA016E10EB0E0041EB81
:100B000011214FEA104E4EEA014E10EB0E0041EB60
:100B10001141401841F100014FEAD00040EA417014
:100B20004FEAD10110EB80054FEA810444EA90744A
:100B300044EB01046D1944EB0404521BA3414FF034
:100B4000000348BF0A3200D530BD401C41F100010E
:100B500030BD2DE9F0470D4699469246044600F116
:100B600024080168880604D5E06921F0100121609D
:100B700000E00120A84201DD471B00E00027A16939
:100B80007A1902EB0900081AA0612078C00602D485
:100B90002046FFF7DEFC002608E0D4E901211AF820
:100BA00006009047206A401C761C20624E45F4DB0C
:100BB0002078C0060AD52046FFF7CBFC06E0D4E932
:100BC000012130209047206A401C2062381EA7F186
:100BD0000107F4DC07E0D4E9012118F8050090478B
:100BE000206A401C2062281EA5F10105F3DC204686
:100BF000FFF7C5FC2078000602D50220BDE8F0878B
:100C00000120FBE770472DE9FF4F0C461E464FF0D1
:100C1000FF378BB0D2E90001DDF860800A908A4688
:100C2000C1F30A5505B93D46002108464FF00000C2
:100C3000BAF1000F00F4400005DA00EB80004FF439
:100C4000400101EA50004FEA9059B9F1010F00DD6F
:100C5000B9460A9850EA4A000ED044F61050A5F260
:100C6000FF3545432F14B8F1000F1ED07542291EE1
:100C70001EDDC9F100021CE0B8F1010F4FF00000C9
:100C800001D0302103E0F24305E02154401CB04282
:100C9000FBDB30460022002121540B99C1F808806B
:100CA000C1E900200FB0BDE8F08FBD1B6D1CDEE771
:100CB0004A4600DA694206A800F0F0FB06AB93E86A
:100CC000070003AB83E8070050460A9900F06DFC6B
:100CD0008DE80700A0F500501F3800900398002D04
:100CE0000ADD42F21F014A460844002303A903908B
:100CF000684600F0D6FE09E0A0F500504A461F38CD
:100D0000002303A90390684600F0E0FE8DE8070089
:100D10000004000C03D04FF0FF30410800E0104603
:100D2000B8F1000F03D00022009215461EE0751E98
:100D300005D4FFF7C9FE303262556D1EF9D5B346B2
:100D40000122084302D000227F1C04E020783028D2
:100D500001D100227F1E002A099784D01DE0112DA9
:100D600007DAFFF7B1FE303262556D1C50EA01021E
:100D7000F5D1084302D00098C8B10EE00021681EEA
:100D800005E0235C625C63542254401E491C81428E
:100D9000F7DBAB46A81B401E0990002004F80B00AF
:100DA0000B98099AC0F80880C0E9002B7AE7112651
:100DB0004FF0000857E72DE9F04F88460446D21D52
:100DC00022F0070191B0D1E90001CDE90A0103F059
:100DD0009AFA02460B98C00F01D02D2007E0206838
:100DE000810701D52B2002E0202101EAC000032A5F
:100DF000099001D0072A05DB03464146204600F052
:100E00000DFB0BE12078800601D5E06900E00620AB
:100E1000B8F1650F814606D0B8F1660F18D0B8F169
:100E2000670F70D131E00020B9F1110F009001DBA4
:100E3000112301E009F101030AAA01A90CA8FFF797
:100E4000E2FEDDE90C70002609F10105834647E06A
:100E500001204B4600904FF000470AAA01A90CA8B8
:100E6000FFF7D1FEDDE90DB00C995D46002610B903
:100E700009F101000D18B9EB050003D4C0F1FF36EC
:100E800009F10105A5EB09002BE0B9F1010F01DA29
:100E90004FF001090020B9F1110F0090484601DD23
:100EA000112300E003460AAA01A90CA8FFF7ABFE34
:100EB000DDE90C704D4600268346207800070AD4F1
:100EC000AB4500DA5D4601A8012D04DD411911F89A
:100ED000011C302907D04F4502DA17F1040F04DA5C
:100EE000012082460FE06D1EEEE7002F02DCED1BB5
:100EF0003E4403E0781CA84200DD7D1CB81B00F1D5
:100F0000010A4FF000472078000703D4AA4501DB0F
:100F10004FF0FF3A0021B7F1004F0DF143088DF873
:100F2000431024D002202B23002F01DA7F422D23EF
:100F30000A21021EA0F1010000DC5FB197FBF1FC69
:100F400097FBF1F201FB1C7C17460CF1300C08F802
:100F500001CDEEE7A8F1010003702188090501D554
:100F6000452100E06521A0F1010800F8011C099865
:100F70000FA9A1EB0807FF1D00B10120411901EBEA
:100F8000EA70A1693844081A401EA0612078C006A2
:100F900002D42046FFF7DDFA099828B1D4E90121EF
:100FA0009047206A401C20622078C00622D5204647
:100FB000FFF7CFFA1EE0002E04DBB34502DD01A8E7
:100FC000805D00E03020D4E901219047206A401C78
:100FD0002062761CAAF101005FEA000A0AD100F043
:100FE00019FAC0680168405CD4E901219047206A81
:100FF000401C2062281EA5F10105DCDC07E0D4E9D5
:10100000012118F8010B9047206A401C2062381E0D
:10101000A7F10107F3DC2046FFF7B1FA032011B076
:1010200041E600002DE9F04F04460D46D21D22F0A6
:10103000070089B0D0E900974846394603F063F9C4
:101040000246F80F01D02D2307E02068810701D563
:101050002B2302E0202101EAC0038DF820300BB1E0
:10106000012000E00020032A824601D0072A04DB89
:101070002946204600F0D2F93FE12078800601D4CD
:101080000D2500E0E569C7F30A560D2D49DA002168
:101090004FEA175B08464FF00000002F00F44000B5
:1010A00007DA00EB80004FF4400100EBD07001EA5A
:1010B00060008115012901DD4FF0FF3100224FEA68
:1010C000850CBCF1180F06D31346ACF118004FF095
:1010D0008052C24003E04FF4801323FA0CF30CF16A
:1010E0000C0CBCF1200F04D3ACF1200C09FA0CF06D
:1010F00001E007FA0CF000294FF0004801DD18B9B3
:101100000FE00ED140450CD319EB02095F4121B924
:10111000404502D19F4329EA0209BBEB175F00D08B
:10112000761C2088000502D57B48784402E07A4886
:101130007844193808AA302302F80A30037C0AF1EF
:101140000101002E0AF1020A53546A4602DC4FF0F4
:10115000300101E04FF031014FF001088DF800102F
:1011600002D0A6F2FF3603E059EA470100D06B4EE9
:10117000002D02DC2178090704D54FF002082E214A
:101180008DF80110C44600210BE0C7F303433F0173
:10119000C35C491C6D1E02F80830052908F10108DE
:1011A00001DA002DF1DC00210CE000EB1973491C81
:1011B0001B786D1E082902F808304FEA091908F15A
:1011C000010801DA002DF0DC21688B0602D516E05B
:1011D000A8F10108E04505DD02EB080313F8013C26
:1011E000302BF5D0B8F1000F09DD02EB080313F83E
:1011F000013C2E2B03D1090701D4A8F10108002DD1
:1012000005DD3E2102F808106D1E08F10108407C42
:10121000002E02F8080008F1010804DA2D207642B9
:1012200002F8080002E02B2002F808000A214FF41F
:101230007A70864208F101080BDB96FBF0F330333D
:1012400002F8083096FBF0F308F1010800FB136682
:1012500001E0642E0CDB642096FBF0F3303302F8DF
:10126000083096FBF0F308F1010800FB136601E07B
:101270000A2E06DB96FBF1F0303002F8080008F188
:10128000010896FBF1F001FB1060303002F8080015
:10129000A16908F1010808EB050202EB0A00081A2F
:1012A000A0612078C00602D42046FFF752F9216AD7
:1012B00008AE01EB0A00206204E0D4E9012116F82F
:1012C000010B9047BAF1010AF7D22078C00602D587
:1012D0002046FFF73EF96E4609E016F8010B3E285E
:1012E0000FD0D4E901219047206A401C2062B8F158
:1012F0000108F2D22046FFF742F909B00320BDE809
:10130000F08F206A2844206203E0D4E901213020D4
:1013100090476D1EEBD3F8E73E34000002FCFFFF60
:1013200010B5436913B1AFF3008001E0FFF74AF94C
:10133000012010BD127800F124010A7000224A70C9
:101340000122EDE711684FF0FF32E9E710B543697C
:1013500013B1AFF3008001E0FFF7D4F9012010BD15
:10136000128800F1240182840022C2840122EDE768
:1013700011684FF0FF32E9E770B516460C46054696
:1013800000F040F8036893F80101012806D0FF2C13
:101390000FD8185D68B101202C7070BDD3F807011B
:1013A0003246214603F2071303442846BDE8704045
:1013B00018474FF0FF3070BD754600F0EBF8AE46B1
:1013C00005006946534620F00700854618B020B551
:1013D000FEF78EFFBDE820404FF000064FF00007FB
:1013E0004FF000084FF0000B21F00701AC46ACE8CD
:1013F000C009ACE8C009ACE8C009ACE8C0098D463A
:101400007047000010B500F005F8001D10BD00BFCA
:10141000A930000000487047F40A00202DE9F0418F
:101420001F46044603260168072A01F4006004DB16
:1014300008B116A505E016A503E008B115A500E062
:1014400015A521F010002060A069C01EA0610FB199
:10145000401EA0612046FFF77CF84FB1D4E901217E
:1014600038469047206A401C2062C01C206206E07B
:10147000206AFAE7D4E9012115F8010B9047761E9E
:10148000F8D22046FFF77BF8BDE8F0814E414E00D0
:101490006E616E00494E4600696E66002DE9F047A8
:1014A000814616468AB0354878440DC88DE80D004F
:1014B00032487844801C03AC0DC884E80D0041F626
:1014C0009B300844372190FBF1F290FBF1F5A5F138
:1014D000800501FB12041B3C02D56442012000E0A0
:1014E0000020DFF898A080460027FA44AAF1BE0A3F
:1014F0000EE0E0070AD03246684607EB47010123B9
:101500000AEB810100F0E2FA8DE8070064107F1C0D
:10151000002CEED1194F7F44AE3F19E0E80715D0FB
:1015200007EB04100DF1180A90E80E008AE80E008F
:10153000C068F04201D1981908903246012306A9EB
:1015400003A800F0C3FA03AB83E807006D10641C26
:10155000002DE3D14FF0010332466946B8F1000F88
:1015600003A802D000F09DFA01E000F0AFFAC9E94B
:101570000001C9F808200AB0BDE8F087503100002A
:1015800010B50446AFF300802046BDE81040FEF7DA
:101590009ABE000000487047D40A00200149182074
:1015A000ABBEFEE72600020070475FEA400C08BFB2
:1015B00091F0000F4FEA8C234FEAC12243EA5151C8
:1015C0004FEA1C5018BF00F5F0404FEA300018BF3A
:1015D00041F000415FEA6C5C00F02980BCF1FF3F04
:1015E00008BF40F080407047130C06BF12044FF054
:1015F000100C4FF0000C130E04BF12020CF1080C7B
:10160000130F04BF12010CF1040C930F04BF9200DE
:101610000CF1020CD30F04BF52000CF1010C114667
:101620004FF00002A0F11F00A0EB0C00704711F07A
:10163000004F08BF704731F000413FF4D5AF0B0CAD
:1016400006BF09044FF0100C4FF0000C0B0E04BF46
:1016500009020CF1080C0B0F04BF09010CF1040C7A
:101660008B0F04BF89000CF1020CCB0F04BF4900A3
:101670000CF1010CCCF12003A0EB0C0022FA03F3D7
:1016800002FA0CF241EA030100F10100704720F078
:101690007F4C80EA030023F07F47ACEB070303F5A0
:1016A0007C5300F0004003F1FF032DE980494FEA2D
:1016B000154B09B44FEA144325EA0B4E24EA0348BC
:1016C0000FF2042606EB132749083E785FEA320240
:1016D00003FB0667C7F5000707FB06F64FEA54371A
:1016E0004FEAD64606F1020607FB066CCCF1005C19
:1016F0004FEA1C472CEA074C07FB06F40CFB06F5E7
:1017000004EB15464FEA961634BF00204FF0004018
:101710004FEAD13706FB07FC4FEA1C4C0CFB0BF7DA
:10172000D21B03FB0CF761EB07010CFB0EF7B0EBD0
:10173000074072EB17420CFB08F734BFA2EB0742DD
:10174000B2EB074261EB17414FEA0C444FEA9107B5
:1017500006FB07FC4FEA1C4C0CFB0BF7B0EBC74039
:1017600072EB573203FB0CF734BFA2EBC742B2EB6C
:10177000C74261EB57310CFB0EF7B0EBC70072EBC1
:1017800057720CFB08F734BFA2EBC702B2EBC702DB
:1017900061EB5771039F4FEA816141EA921104EBBB
:1017A000CC044FEAD1374FEA826206FB07FC42EADB
:1017B00090124FEA80604FEA1C4C0CFB0BF7D21BD7
:1017C00003FB0CF761EB07010CFB0EF7B0EB0740D6
:1017D00072EB17420CFB08F734BFA2EB0742B2EBE7
:1017E000074261EB17414FEA8C554FEA910704EB32
:1017F0009C2406FB07FC4FEA1C4C0CFB0BF7B0EBE0
:10180000C74072EB573203FB0CF734BFA2EBC74261
:10181000B2EBC74261EB57310CFB0EF7B0EBC700E0
:1018200072EB57720CFB08F734BFA2EBC702B2EBA6
:10183000C70261EB577115EB4C254FEA816141EA14
:1018400092114FEA82624FEAD13742EA901206FBC8
:1018500007FC44F100044FEA80604FEA1C4C0CFB8B
:101860000BF7D21B03FB0CF761EB07010CFB0EF728
:10187000B0EB074072EB17420CFB08F734BFA2EB4A
:101880000742B2EB074261EB174115EB1C154FEA1B
:10189000813141EA92414FEA823242EA90424FEA74
:1018A00080304FEA0C7644F1000448EA03434EEAE4
:1018B0000B484FF0000EB2EB080C71EB030724BF8E
:1018C000624639464EEB0E0E4FF0000B00185241A7
:1018D00049414BEB0B0BB2EB080C71EB03077BF1AF
:1018E000000B24BF624639464EEB0E0E4FF0000B44
:1018F0000018524149414BEB0B0BB2EB080C71EB5A
:1019000003077BF1000B24BF624639464EEB0E0EF7
:1019100051EA020718BF46F0010616EB0E7655F1A4
:10192000000254F1000103D5BDE88901BDE800883B
:10193000BDE88901BDE80048B619524141EB0101FB
:10194000A3F10103704780807F7E7D7C7B7A79786C
:10195000777676757473727171706F6E6E6D6C6C74
:101960006B6A6A6968686766666564646363626116
:101970006160605F5F5E5E5D5D5C5C5B5B5A5A5997
:101980005958585757565655555554545353525203
:101990005251515050504F4F4F4E4E4D4D4D4C4C5B
:1019A0004C4B4B4B4A4A4A494949484848474747A4
:1019B00047464646454545444444444343434342E1
:1019C000424242414141002B9C4630D477002BD00B
:1019D0001CB54FEA370703B44FF010004FF0100169
:1019E000BAF1000F06D0BCF1000FDCBF40F00800D8
:1019F00040F008014FF000000FBCBDE810400BF1B3
:101A0000010BBBF1010F08BF5FEA170722BF12F1FC
:101A1000010211F101014FF0004143F1000300F018
:101A2000004043EA00007047F9D35708D0E746EA80
:101A3000064613F1400F4FEA16461FDD13F1200F43
:101A4000DFBF16430A46002120335B42BED0C3F1FC
:101A5000200746EA064602FA07F74FEA164646EA24
:101A60000706C3F1200722FA03F201FA07F721FA69
:101A700003F14FF0000342EA0702A7E746EA020635
:101A800046EA06464FEA164646EA0106BCBF46EA63
:101A90000646360C4FF000034FF000024FF00001F5
:101AA00094E72DE9804C9A46934670B491E838004B
:101AB00007C831EA400C48BF34EA430C03D5FFF7AE
:101AC000E6FDFFF780FFF0BCBDE8008C2DE9804CFF
:101AD0009A46934670B491E8380007C810F0804FDA
:101AE00008BF13F0804F03D100F005F8FFF76BFF3C
:101AF000F0BCBDE8008C20F07F4780EA030023F0B3
:101B00007F4C07EB0C03A3F57C5300F00040A3F1DE
:101B1000FE0392F0000F00F0B38095F0000F00F08C
:101B200077802DE901494FEA11404FEA144621EA36
:101B3000004800FB06FC24EA064708FB06F607FB04
:101B400008F800FB07F718EB06484CEB164C4FEA79
:101B5000124B18EB07484FEA15464CEB174022EAA8
:101B60000B4E0BFB06FC25EA06470EFB06F607FBB1
:101B70000EFE0BFB07F71EEB064E4CEB164C4FF020
:101B800000061EEB074E4CEB174B18EB0B0840F111
:101B9000000018EB0E0B58EB000840F100008F1A04
:101BA0004FF000013CBFC943661B14BFB5EB040CEA
:101BB00000213CBFC943F61B4FEA17444EEA8E0E84
:101BC00027EA04454FEA1C4704FB07622CEA074C4E
:101BD00005FB07F70CFB05F604FB0CFC16EB0746B0
:101BE00042EB174216EB0C4642EB1C421BEB06067F
:101BF00058EB0202414146EA9E0601D5BDE8018943
:101C0000B619524141EB0101A3F10103BDE801897D
:101C10004FEA14454FEA114724EA054621EA074CEA
:101C200005FB07F406FB07F70CFB06F105FB0CFCB4
:101C300011EB074144EB17444FEA124711EB0C41FB
:101C400044EB1C4422EA074C05FB07F206FB07F7AE
:101C50000CFB06F605FB0CFC16EB074642EB1742A5
:101C600016EB0C4642EB1C456A1854F1000148BFC4
:101C70007047B619524141EB0101A3F101037047CE
:101C800095F0000F37D04FEA11424FEA144721EA8E
:101C9000024624EA074C02FB07F106FB07F70CFBA0
:101CA00006F402FB0CFC14EB074441EB17414FEA2E
:101CB000154714EB0C4441EB1C4125EA074C02FB91
:101CC00007F506FB07F70CFB06F602FB0CFC16EB10
:101CD000074645EB174516EB0C4645EB1C4212191F
:101CE00051F1000148BF7047B619524141EB010163
:101CF000A3F1010370474FEA14454FEA114724EA64
:101D0000054621EA074C05FB07F106FB07F70CFB2C
:101D100006F24FF0000605FB0CFC12EB074241EB0C
:101D2000174112EB0C4251EB1C4148BF704792180F
:101D300041EB0101A3F10103704710B50146806B2F
:101D4000026C12F0500F05D0026CD20626D500F0BE
:101D50000DFA10BD016C41F40071016401688A68DC
:101D600012F0405F17D1027EAAB9CA6A12F4700F4E
:101D700002D08A6852050ED44A6822F020024A60D6
:101D8000016C21F480710164016CC90403D4016CFD
:101D900041F00101016400F0E7F910BD806BC26CF5
:101DA000BDE810400846104710B5806B4021016423
:101DB000416C41F00401416400F0D8F910BD10B548
:101DC000806B00F0D2F910BD464910B54A6822F484
:101DD00040324A604A6843681A434A6001684A6868
:101DE00022F480724A6001684A68036942EA032269
:101DF0004A6001684A6822F040724A6001684A6895
:101E000083681A434A6001688A6822F400628A6023
:101E100001688A68C3681A438A60816A6FF07062D9
:101E2000D14201688A6822F070628A6001688A681B
:101E30000CD0836A1A438A6001688A6822F0405293
:101E40008A6001688A68C36A1A4301E022F040523E
:101E50008A6001688A6822F002028A6001688A68E2
:101E6000037E42EA43028A6090F82010002901684C
:101E70004A680FD042F400624A6001684A6822F45E
:101E800060424A6001684A68174C436A04EB433376
:101E90001A4301E022F400624A600168CA6A22F42F
:101EA0007002CA620168CA6A838B104C04EB035348
:101EB0001A43CA6201688A6822F400728A60016863
:101EC0008A6890F8303042EA43228A6001688A6862
:101ED00022F480628A6001688A68406942EA802050
:101EE000886010BD0023014000E0FFFF0000F0FF0C
:101EF000FEE710B5846B204600F0BAFA012020718D
:101F000010BD10B5846B204600F088FA01202071C6
:101F100010BD10B5846B206940F00400206120469C
:101F200000F0A8FA0120207110BD10B5846B206963
:101F300040F004002061204600F072FA0120207178
:101F400010BD10B5806B00F094FA10BD10B5806B19
:101F500000F065FA10BD0000014800F017BC000059
:101F6000D4080020014800F011BC000060080020E7
:101F700001681823CAB2103AB2FBF3F2054B6FF3B3
:101F80000901032A9B5CC36500D9091D81650846C8
:101F900070470000F644000810B5014600208B6928
:101FA0008A6A4FF0C07453B1B3F5005F15D072B1B7
:101FB000012A0CD0022A0AD0032A09D104E01AB15E
:101FC000012A06D0022A03D1C96AC90100D501201D
:101FD00010BDC96AA142FAD010BD002AF7D0012A6B
:101FE000F2D0022AF3D0032AF3D010BD30B5046832
:101FF000256825F480252560046863608368402B8C
:10200000036803D099600068C26030BD9A600068C0
:10201000C16030BD704772B6FEE7000078B500249D
:10202000009490F83C20012A19D0012280F83C202D
:102030000A6807230568092A13D9EE680A3A02EBF1
:10204000420293409E43EE600B788A680A3B03EBA2
:1020500043039A400368DD682A43DA6010E00220F7
:1020600078BD2E6902EB420293409E432E610B78AD
:102070008A6803EB43039A4003681D692A431A6187
:102080004A681F23072A13D205686E6B521E02EBA3
:10209000820293409E436E630B790A885B1E92B264
:1020A00003EB83039A4003685D6B2A435A6327E07E
:1020B00005680D2A12D22E6BD21F02EB82029340CA
:1020C0009E432E630B790A88DB1F92B203EB8303D6
:1020D0009A4003681D6B2A431A6311E0EE6A0D3AB9
:1020E00002EB820293409E43EE620B790A880D3B1D
:1020F00092B203EB83039A400368DD6A2A43DA62F3
:10210000164B0568144A9D4206D10D68122D03D165
:10211000556845F48005556005689D4218D10B68E7
:10212000102B01D0112B13D1536843F400035360DB
:10213000096810290CD10A490A4A0968B1FBF2F171
:1021400001EB8101490000E0491E00910029FBD10B
:1021500080F83C40002078BD002301400020014071
:102160001000002040420F0070477047704770B564
:1021700004004FF0000503D0206C002610B107E0EA
:10218000012070BD204600F01DF8666484F83C60B4
:10219000206CC00610D4206C20F4885040F002005F
:1021A00020642046FFF710FE6664206C20F00200D9
:1021B00040F00100206400E0012584F83C602846DE
:1021C00070BD000070B586B0064614216846FEF763
:1021D00055F91D493068884234D11C4800250168F2
:1021E00041F480710160006800F480700590174828
:1021F0001438016841F0010101600068694600F08F
:1022000001000590012000900320CDE90105104850
:1022100000F040FC104C0F48C4E900050015A56013
:10222000C4E90350400060618000A0614011C4E92E
:1022300007052046656200F079FB08B1FFF7EBFE69
:10224000B463A66306B070BD00200140443802406C
:10225000000002401064024060080020F8B5044607
:1022600000200E46009094F83C10012907D001216F
:1022700084F83C1021688B68DB0702D011E0022053
:10228000F8BD8B6843F001038B604049404B0968FF
:10229000B1FBF3F101EB410100E0491E009100297F
:1022A000FBD121688B68DB0503D58B6823F4807331
:1022B0008B6021688B68DB075DD0236C40F2016581
:1022C000AB4343F4807323644968490505D5216C09
:1022D00021F4005141F480512164216CC90404D5DA
:1022E000616C21F00601616400E0606484F83C00E8
:1022F000A16B2948274DC863A16B28480864A16BCE
:102300002748C86421686FF022000860206841688F
:1023100041F0806141602068816841F48071816092
:102320002168134632464C31A06B00F069FB6868A7
:102330001C49C006206806D0884224D1816811F06B
:10234000405F13D01FE08842F8D0174A904203D173
:10235000D1F80423D206F1D0144A904213D1D1F817
:10236000041301F01F011029E8D30CE0816841F04B
:102370008041816007E0206C40F010002064606CB8
:1023800040F0010060640020F8BD00001000002053
:1023900040420F00002301403B1D0008BF1D000804
:1023A000A91D000800200140002101400022014039
:1023B00010B50446002094F83C1001290CD00121EE
:1023C00084F83C1021688A6822F001028A60216842
:1023D0008A68D20702D01DE0022010BD8A6822F46C
:1023E00080728A60A16B91F83520022A07D10846D5
:1023F00000F071F918B1216C41F0400121642168AD
:102400004A6822F080624A60216C21F4885141F0D0
:1024100001012164002184F83C1010BD7047704711
:10242000704770B500B3F9B14379012B1ED0012676
:1024300046710223037105682C6802F0100340F610
:10244000FE729A409443D1E900210A439A40224304
:102450002A6001680A68C0249C40A2430A60067191
:1024600000214171084670BD012070BD022070BD81
:1024700070477047704770B5040003D0207900257D
:1024800010B105E0012070BD6571204600F008F82C
:1024900002202071256101202071002070BD000004
:1024A00070B586B0054614216846FDF7E7FF1F4961
:1024B0002868884237D11E480026016841F0005143
:1024C0000160006800F0005005901948103801685C
:1024D00041F0010101600068694600F001000590CB
:1024E000102000900320CDE90106124800F0D2FA36
:1024F000124C114820604FF0606060604020C4E9D9
:10250000020600012061400060618000A06140116E
:10251000C4E907062046666200F008FA08B1FFF732
:102520007AFDAC60A56306B070BD00000074004089
:10253000403802400000024088600240D408002079
:1025400070B508B34279012A20D0012242710223DA
:1025500003710468266801F0100302FA03F52E43A4
:1025600026600029016813D00C6804F470153C241F
:102570009C40A54203D14B6843F002034B600271BB
:1025800000214171084670BD012070BD022070BD60
:102590000B68C3F383030F2BF1D14B6843F00103A6
:1025A000ECE700002DE9F0410400069817460D46BF
:1025B0001BD0617901291BD001266671022121718E
:1025C000C5B1E2682949D163E26829491164E2682A
:1025D0002849D16421680A6842F080520A6040B3F9
:1025E0002268042828D01C3227E00120BDE8F081B1
:1025F0000220FBE7A2682049D163A2681F49116449
:10260000A2681F49D16421680A6842F480520A60B6
:1026100020B12268042804D0103203E02268083276
:1026200000E00C322068016841F400510160A068AC
:1026300009E02268143200E018322068016841F095
:1026400000510160E068394600F0DAF9002161715B
:1026500020B1216941F004012161C7E721680A68BE
:1026600005F010039E4032430A60BFE7031F0008D5
:102670004D1F00082B1F0008F31E0008431F000811
:10268000131F000870B504001BD02068036801F018
:1026900010024FF480559540AB43036020680368F7
:1026A000012505FA02F29343036061B1E06800F08E
:1026B00012F82068016821F00051016025710020A6
:1026C00070BD012070BDA06800F005F820680168A9
:1026D00021F40051F1E72DE9F0410446876D00F047
:1026E000D1FA064694F835000025022806D080204D
:1026F000606584F834500120BDE8F08120680168ED
:1027000021F0160101602068416921F080014161DA
:10271000206C08B9A06C20B12068016821F0080184
:1027200001602068016821F0010101600CE000F007
:10273000A9FA801B052807D920206065032084F8AA
:10274000350084F83450D7E720680068C007EED120
:1027500094F85C103F208840B860012084F8350070
:1027600084F834500020C7E790F83510022903D0D0
:102770008021416501207047052180F835100068EF
:10278000016821F001010160002070472DE9F84344
:1027900004464FF00009CDF8009063484FF41651FD
:1027A000A56D0068B0FBF1F72E6894F85C10082066
:1027B00000FA01F131420FD021680A6852070BD5A7
:1027C0000A6822F004020A6094F85C108840A8604D
:1027D000606D40F00100606594F85C104FF00108F6
:1027E00008FA01F0304208D021684969090604D589
:1027F000A860606D40F00200606594F85C100420F1
:102800008840304208D021680968890704D5A8604B
:10281000606D40F00400606594F85C101020884002
:10282000304218D021680968090714D5A8602068CB
:102830000168490304D50068000308D5A16C07E0CE
:102840000168C90503D4016821F008010160216C09
:1028500009B12046884794F85C1020208840304217
:1028600031D021680968C9062DD5A86094F83500D3
:1028700005282068016806D0490347D50068000391
:102880001DD4616C1CE021F01601016020684169D3
:1028900021F080014161206C08B9A06C20B1206852
:1028A000016821F00801016094F85C103F20884025
:1028B000A86084F8358084F83490216D1FE0E16BC6
:1028C00009B120468847606D00282BD0606DC00795
:1028D00014D0052084F835002068016821F001013A
:1028E00001600098401C0090B84203D8206800683E
:1028F000C007F6D184F8358084F83490E16C002963
:1029000010D001B02046BDE8F04308470168C90572
:10291000D5D4016821F01001016084F8358084F875
:102920003490CCE7BDE8F883100000202DE9F04199
:10293000044600F0A7F906465CB1022084F8350091
:10294000002584F834502068016821F001010160FD
:102950000DE00120BDE8F08100F094F9801B05280E
:1029600005D920206065032084F83500F2E720684F
:102970000068C007F0D12268116820480140D4E9FE
:1029800001031843D4E903363343184363691843FA
:10299000A3691843E3691843236A18430843616A2B
:1029A000042903D1D4E90B131943084310602068AC
:1029B0004069666A20F0070130460E43012704286B
:1029C0000CD1A06A0643E06A40B12046FFF7E4FA62
:1029D00020B14020606584F83570BAE72068466110
:1029E0002046FFF7C5FA94F85C203F2191408160B2
:1029F000656584F835700020ACE700003F8010F07A
:102A00002DE9F0410446866D90F834000025012838
:102A10000DD0012084F8340094F835700020012F87
:102A200007D084F8340002252846BDE8F081022052
:102A3000FBE7022784F8357060652046FFF7D6FA79
:102A400094F85C103F208840B0602068016841F035
:102A500016010160206C20B12068016841F0080176
:102A600001602068016841F001010160DCE70000BD
:102A700070B5044600F006F90546601C02D0044813
:102A80000078044400F0FEF8401BA042FAD370BD69
:102A9000040000202DE9F84FDFF8BCA10022012539
:102AA00003264FF00F090AF1040BAAF1040E00BF30
:102AB0000B6805FA02F42340A34270D10F7907F0A6
:102AC0000307012F01D0022F16D187684FEA420871
:102AD00006FA08FC27EA0C07D1F80CC00CFA08FC2F
:102AE0004CEA070CC0F808C04768A7430C79C4F348
:102AF000001494403C4344600C79E443A4070AD09A
:102B0000C4684FEA420C06FA0CF7BC438F6807FA18
:102B10000CF72743C7600C7904F00304022C12D190
:102B2000D40800EB840CDCF820405707FF0E09FAAC
:102B300007F824EA0804D1F8108008FA07F848EAF0
:102B40000408CCF8208004684FEA420C06FA0CF71F
:102B5000BC430F7907F0030707FA0CF72743076018
:102B60004C6814F4403F70D03C4C276847F48047D1
:102B70002760246822F0030704F480440094384C52
:102B800007EB040CDCF8084897074FEA177809FAB6
:102B900008F7BC43334FB84202D1002724E054E089
:102BA000314FB84201D101271EE0304FB84201D168
:102BB000022719E02E4FB84201D1032714E02D4F10
:102BC000B84201D104270FE02B4FB84201D10527AD
:102BD0000AE02A4FB84201D1062705E0284FB84243
:102BE00001D1072700E0082707FA08F72743CCF8A8
:102BF0000878DAF800405746D1F804C09C435FEAF1
:102C0000CC2C00D51C433C60DBF800405F46D1F87B
:102C100004C09C435FEA8C2C00D51C433C60DEF86A
:102C200000407746D1F804C09C435FEA8C3C00D555
:102C30001C433C60084F083F3C68D1F804C09C43EB
:102C40005FEACC3C00D51C433C60521C102AFFF4C8
:102C50002FAFBDE8F88F0000083C01404438024027
:102C60000030014000000240000402400008024021
:102C7000000C024000100240001402400018024004
:102C8000001C0240014880687047000004000020DA
:102C90000248816802781144816070470400002076
:102CA0000B4810B5016841F400710160016841F4FE
:102CB00080610160016841F480710160032000F0CF
:102CC0006FF80F2000F006F800F024F8002010BD87
:102CD000003C024070B50D4D04464FF47A712878DF
:102CE000B1FBF0F00A490968B1FBF0F000F00AFB13
:102CF00048B9102C07D200222146501E00F030F8AF
:102D000000206C6070BD012070BD00000400002038
:102D1000100000200A4808B5016841F480410160B4
:102D2000006800F4804000900548001F016841F0F1
:102D300080510160006800F08050009008BD0000E4
:102D400044380240002809DB00F01F0201219140B5
:102D50004009800000F1E020C0F800117047000039
:102D6000F0B40E4B1B680C46C3F30223C3F10705F6
:102D7000042D00D90425191D072901D2002300E0E4
:102D8000DB1E012606FA05F1491E214099409E40AE
:102D9000761E16403143F0BC01F0CDBA0CED00E0D8
:102DA000064900F0070208684FF6FF03184040EAA2
:102DB0000220034A10430860704700000CED00E059
:102DC0000000FA052DE9F0470E46050065D0DFF852
:102DD0001481D8F80000F7B200F00700B04207D223
:102DE00088F80070D8F8000000F00700B04254D115
:102DF00028683D4C810712D5400703D5206840F470
:102E0000E05020602878000703D5206840F4604037
:102E100020602068A96820F0F0000843206028782E
:102E2000C0072DD0304968680839012812D002281F
:102E300013D0032811D00968890700292DDA2168E9
:102E400021F0030101432160FFF71CFF814641F29D
:102E5000883A0EE009688903EFE709688901ECE721
:102E6000FFF710FFA0EB0901514502D90320BDE88F
:102E7000F0872068696800F00C00B0EB810FEFD19B
:102E8000D8F80010404601F00701B14207D9077099
:102E9000006800F00700B04201D00120E7E7287881
:102EA000400705D52068E96820F4E0500843206019
:102EB0002878000706D52068296920F4604040EA98
:102EC000C100206000F038F82168084AC1F30311FE
:102ED000515CC8400649086006480068FFF7FAFEE2
:102EE0000020C4E7003C024008380240FE440008CD
:102EF0001000002008000020044805490068096807
:102F0000044AC1F38221515CC84070471000002080
:102F1000083802400E450008044805490068096861
:102F2000044AC1F34231515CC84070471000002090
:102F3000083802400E450008154810B5006810F02A
:102F40000C02144813D04110042A0FD0082A0ED1C5
:102F50000F4C241F2268236802F03F025B0207D552
:102F60002068C0F38810A0FB010106E0084610BDF0
:102F70002168C1F38811A1FB00010023FDF7CAF904
:102F80002168C1F30141491C4900B0FBF1F010BDBB
:102F9000083802400024F4002DE9F84F04006ED0F8
:102FA0002078DFF84C93C007A9F104054AD009F155
:102FB00004000168C1F38101012908D00068C0F351
:102FC000810002280AD1D9F80000400206D52868FD
:102FD000800337D560680028E1D033E06068B0F541
:102FE000803F10D0B0F5A02F286810D020F480309A
:102FF0002860286820F4802028606068A8B1FFF766
:1030000041FE06460DE0286840F48030F4E740F4C5
:1030100080202860F7E700BFFFF734FE801B64289C
:1030200073D828688003F7D50CE0FFF72BFE06461F
:1030300005E000BFFFF726FE801B6428F0D8286853
:103040008003F7D42078DFF8AC8280074FF0000AC5
:103050003ED5A748001D016811F00C0F08D000688C
:10306000C0F3810002280BD1D9F80000400207D438
:103070002868800716D5E068012800D112E033E106
:10308000E068B8B10120C8F80000FFF7FBFD064674
:1030900005E000BFFFF7F6FD801B0228C0D82868B6
:1030A0008007F7D52868216920F0F80040EAC100C0
:1030B00028600DE0C8F800A0FFF7E4FD064604E034
:1030C000FFF7E0FD801B02281FD828688007F7D48F
:1030D0002078000722D5864F87486169703771B123
:1030E00001210160FFF7CEFD064604E0FFF7CAFDAF
:1030F000801B022809D838688007F7D50EE0C0F891
:1031000000A0FFF7BFFD064605E082E0FFF7BAFD2D
:10311000801B02287DD838688007F7D420784007C4
:1031200068D5DFF8CCB100270BF13C0BDBF80000D1
:10313000C0000BD4DBF8001041F08051CBF8001038
:10314000DBF80000012700F0805000906B4E3068E3
:10315000C00510D4306840F480703060FFF792FDF5
:10316000009005E0FFF78EFD0099401A022850D824
:103170003068C005F6D55E4EA0686C3601280FD0C9
:103180000528306810D020F001003060306820F051
:1031900004003060A068B8B1FFF774FD00900FE044
:1031A000306840F00100F4E740F004003060F7E7D9
:1031B000FFF768FD0099411A41F28830814266D8D4
:1031C00030688007F4D50EE0FFF75CFD009007E063
:1031D000FFF758FD0099411A41F28830814256D8D4
:1031E00030688007F4D42FB1DBF8001021F0805153
:1031F000CBF80010A069C8B33D49091D0968C1F3A7
:10320000810102294AD00228504607D0C8F8600040
:1032100000E03CE0FFF736FD04463BE04746C8F8D7
:103220006000FFF72FFD064605E000BFFFF72AFD0F
:10323000801B02282BD828688001F7D4D4E9070125
:103240000843A16A2E4A490802EB0141626A41EA39
:103250008211084394F82C1040EA0161C9F800106B
:1032600001203866FFF70EFD044606E03EE000BF91
:10327000FFF708FD001B022809D828688001F7D550
:1032800034E000BFFFF7FEFC001B022802D9032038
:10329000BDE8F88F28688001F4D427E00128F7D032
:1032A000D9F80000E26900F4800191421CD1226A41
:1032B00000F03F01914217D147F6C071626A0140A8
:1032C000B1EB821F10D1A26A4FF0FF3300F44031FE
:1032D00003EB5202B1EB024F06D194F82C1000F030
:1032E0007060B0EB016F01D00120D1E70020CFE783
:1032F0000438024000004742800E47420070004000
:103300000000FFFF10B5401EB0F1807F01D3012007
:1033100010BD4FF0E02460610F21601701F00BF841
:103320000020A06107202061002010BD70B590F83A
:103330003C20012A32D0012480F83C40022280F84F
:103340003D2003685A689D6822F070060A6832437F
:103350005A60134B02689A4214D0B2F1804F11D0D8
:10336000104B9A420ED0104B9A420BD00F4B9A4200
:1033700008D00F4B9A4205D00E4B9A4202D00E4B0A
:103380009A4204D1496825F080031943916080F87E
:103390003D40002180F83C10084670BD022070BD01
:1033A000000001400004004000080040000C004004
:1033B00000040140004001400018004010B5040026
:1033C00003D094F83D0010B107E0012010BD0020AB
:1033D00084F83C00204600F01FF8022084F83D00ED
:1033E000211D206800F070FD012084F8460084F85B
:1033F0003E0084F83F0084F8400084F8410084F8DF
:10340000420084F8430084F8440084F8450084F8BE
:103410003D00002010BD000008B50068B0F1804FED
:1034200008D10548016841F001010160006800F021
:103430000100009008BD00004038024090F83D10A7
:10344000012901D001207047022180F83D10006859
:103450001149884214D0B0F1804F11D00F498842F1
:103460000ED00F4988420BD00E49884208D00E4931
:10347000884205D00D49884202D00D49884204D1C6
:10348000816801F00701062903D0016841F00101BC
:10349000016000207047000000000140000400406F
:1034A00000080040000C00400004014000400140C2
:1034B0000018004070B5044690F83C000025012833
:1034C00017D0012684F83C60022084F83D00206873
:1034D000826822F0770222F47F42826008685028D6
:1034E00038D00DDC20284FD005DC90B3102811D146
:1034F0004AE0022070BD302846D040280AD13BE087
:1035000060282FD070280DD0B0F5805F03D0B0F5C3
:10351000005F12D0012584F83D60002084F83C0053
:10352000284670BDCB68D1E90121206800F038FD44
:103530002068816841F0770109E0CB68D1E9012179
:10354000206800F02DFD2068816841F48041816091
:10355000E1E719E0CA684968206800F033FD5021AE
:10356000206806E0CA684968206800F03CFD6021D8
:10357000206800F01FFDCEE7CA684968206800F0A7
:1035800021FD40212068F4E7226801461046F0E75B
:1035900070477047F8B5016804460868CA684B6907
:1035A00010F00F0F4FF0000559D003F0010602F4A0
:1035B0009077374365D0C10705D0D10503D5616C3D
:1035C00041F001016164410705D5D90703D0616C61
:1035D00041F002016164810705D5D90703D0616C10
:1035E00041F004016164010707D502F02001314375
:1035F00003D0616C41F008016164616C00293AD02C
:10360000800604D5900602D5204600F02DFD2068E6
:103610004069616CC0F38010090700D460B3204694
:1036200000F0FBFC20684069400621D5206814307A
:1036300050E8001F21F0400140E80012002AF5D1B7
:10364000E06BA8B16E490165E06BFFF78DF80028CB
:1036500011D0E06B016D01B0BDE8F0400847830672
:103660000FD593060DD52046BDE8F84000F0FCBC10
:103670002046FFF78EFFF8BD2046FFF78AFF6564FE
:10368000F8BD266B2023012E7DD1C6067BD5D6063C
:1036900079D508684868009048694FF002064006EE
:1036A00041D5E16B086840680004000CE8D0A28DA9
:1036B0008242E5D9E085C869B0F5807F2DD02068C9
:1036C0000C3050E8001F21F4807140E80012002AFD
:1036D000F5D12068143050E8001F21F0010140E8C6
:1036E0000012002AF5D12068143050E8001F21F0A4
:1036F000400140E80012002AF5D184F842302563E9
:1037000020680C3050E8001F21F0100140E8001242
:10371000002AF5D1E06BFEF7DEFF6663A08DE18D38
:10372000401A81B22AE0A08DE18D401A81B2E08D6D
:103730000028A5D00029A3D022680C3252E8000F3F
:1037400020F4907042E80007002FF5D12068143073
:1037500050E8002F22F0010240E80027002FF5D1A9
:1037600084F84230256320680C3050E8002F22F0A6
:10377000100240E80023002BF5D166632046FFF7D6
:1037800007FFF8BDFFE705062BD5150629D594F8E8
:1037900041002128F5D1A068B0F5805F01D12069F2
:1037A000B0B1206A411C2162216800784860E08C39
:1037B000401E0004000CE084E3D12068C16821F0C1
:1037C0008001C1602068C16841F04001C160D8E754
:1037D000206A0088C0F308004860206A801C2062CC
:1037E000E5E74006CDD55006CBD5CA68204622F085
:1037F0004002CA6084F8413000F050F9C1E700008F
:103800000B40000870B5040004D094F84100002576
:1038100010B106E0012070BD84F84050204600F051
:1038200023F8242084F841002068C16821F4005165
:10383000C160204600F07AFC2068016921F49041C3
:1038400001612068416921F02A0141612068C16855
:1038500041F40051C1606564202084F8410084F87F
:1038600042006563002070BDF0B587B004461421A6
:103870006846FCF703FE3D4B276800223C490224C2
:10388000032507263B489F4221D1394B14331F683B
:1038900047F010071F601B6803F0100305930B68C7
:1038A00043F001030B60096802AB01F001010591CF
:1038B0006902CDE9001483E864006946FFF7EAF87D
:1038C000002211462520FFF74BFA252024E0284B43
:1038D000DFF8A4C01033674522D11F6847F40037D2
:1038E0001F601B6803F4003305930B6843F001036A
:1038F0000B60096802AF01F0010105910C21CDE9CF
:10390000001487E864006946FFF7C4F800221146F6
:103910002620FFF725FA2620FFF714FA07B0F0BD9E
:1039200016488742FAD1186840F480201860186859
:1039300000F480200590086840F0020008600868E4
:1039400002AF00F0020005904FF44060CDE90004A2
:1039500087E8640069460A48FFF79CF80022114690
:103960002720FFF7FDF92720D6E7000000100140CF
:10397000303802400000024000440040004800404F
:103980000004024090F84230202B01D00220704702
:1039900021B11AB10023036300F04EBC012070472F
:1039A000F0B40068114988421ED1114800224188B4
:1039B0007F2911D243780F4D0A2B04D16C1814F8CB
:1039C000016C0D2E03D06B54491C418005E0012190
:1039D000017004F8012C00E04280F0BC044901228F
:1039E000491C0548FFF7CEBFF0BC704700440040BB
:1039F00014000020540A0020C40900202DE9F843D7
:103A0000044690F84100984616460D46202802D0FC
:103A10000220BDE8F88385B17EB1002060642120DA
:103A200084F84100FFF72EF9A6848146E684A06859
:103A30002027B0F5805F02D003E00120E9E720698C
:103A400010B12E4600250EE000260CE08021204615
:103A500000F00DFCA8B9C6B116F8010B216848604A
:103A6000E08C401EE084E08C4B464FF00002CDF825
:103A700000800028EAD14FF04001204600F0F7FB1B
:103A800040B184F841700320C3E735F8020BC0F35E
:103A90000800E3E784F841700020BAE77047FEE7CA
:103AA0007FB50024154800940194029412490394B0
:103AB000C0E9001484600461047680F820404FF06F
:103AC0008051C1620125C5614FF0C061C46081624F
:103AD00080F830504561FEF74AFB08B1FEF79BFACB
:103AE000CDE90045694605480294FEF797FA00289B
:103AF00001D0FEF790FA7FBD002001401808002099
:103B00001CB500240C4900940A480194086008463A
:103B1000FEF7B1FC08B1FEF77EFA2420CDE90004DF
:103B2000002269460448FEF77CFC002801D0FEF71D
:103B300072FA1CBD00740040C0080020114808B58E
:103B4000016841F480010160016801F48001009185
:103B5000016841F4001101600068002200F40010C7
:103B6000009011461020FFF7FBF81020FFF7EAF84D
:103B7000002211463820FFF7F3F8BDE8084038204E
:103B8000FFF7E0B8303802400D4808B5016841F051
:103B900080010160016801F080010091016841F03D
:103BA00001010160016801F001010091016841F02B
:103BB00002010160006800F00200009008BD0000F2
:103BC0003038024010B586B00024174800940194A4
:103BD0000294039404944FF080410594C0E90014CA
:103BE00040F60F61C0E90241802104618161FFF765
:103BF000E5FB08B1FEF70FFA4FF4805000906946DC
:103C00000948FFF757FC08B1FEF705FA2020CDE977
:103C1000040404A90448FFF789FB002801D0FEF73B
:103C2000FAF906B010BD0000340900200C4810B5A8
:103C30000A4901604FF4E1314160002181600C22AA
:103C4000C160C0E904128161C161FFF7DBFD00289A
:103C500003D0BDE81040FEF7DEB910BD00100140F2
:103C60007C0900200C4810B50A4901604FF4E1318D
:103C70004160002181600C22C160C0E904128161B1
:103C8000C161FFF7BFFD002803D0BDE81040FEF77B
:103C9000C2B910BD00440040C40900200C4810B552
:103CA0000A4901604FF4E1314160002181600C223A
:103CB000C160C0E904128161C161FFF7A3FD002862
:103CC00003D0BDE81040FEF7A6B910BD0048004083
:103CD0000C0A0020FEE7FEE77047704738B54FF446
:103CE0008064224614491548FEF7B8FA28B114A199
:103CF000194800F0B1FB72B6FEE718A1164800F0B3
:103D0000ABFB00200146009023460B4A1F48FEF7FC
:103D100049FC40B10948FEF74BFB1DA10E4800F0DD
:103D20009BFB72B6FEE720A10B4800F095FB2A49E9
:103D30000120087038BD000018000020180800207D
:103D400041444320444D4120737461727420666184
:103D5000696C65640D0A0000C409002041444320D9
:103D6000444D41207374617274656420737563639C
:103D700065737366756C6C7920696E206369726314
:103D8000756C6172206D6F64650D0A00C0080020BB
:103D900044414320444D4120737461727420666134
:103DA000696C65640D0A000044414320444D412084
:103DB000737461727465642073756363657373668D
:103DC000756C6C7920696E2063697263756C6172C1
:103DD000206D6F64650D0A000000002010B50748D3
:103DE000FEF7E6FA00210648FEF74CFC05A10B4859
:103DF00000F032FB0A490020087010BD18080020AE
:103E0000C00800204144432F44414320444D4120F9
:103E100073746F707065640D0A000000C40900209F
:103E200000000020FEF734BF30B593B03021684663
:103E3000FCF724FB14210CA8FCF720FB1C480025F0
:103E4000016841F080510160006800F080501190DD
:103E50001848016841F4804101600068022400F4C0
:103E60008040119001200090000401908001CDE974
:103E7000064008AA0420482182E813000B906846F7
:103E8000FFF78AF808B172B6FEE70CA90F2081E8A7
:103E900031004FF48050CDE90F0502210CA8FEF748
:103EA00091FF002801D072B6FEE713B030BD0000CC
:103EB00040380240007000400248016841F470013F
:103EC0000160704788ED00E0F0B50268294C2A4D8A
:103ED0002A4E2B4F2B4B4FF0804CA04209D060450F
:103EE00007D0A84205D0B04203D0B84201D09842D2
:103EF00004D122F0700E4A6842EA0E02A0421BD0A2
:103F0000604519D0A84217D0B04215D0B84213D09E
:103F1000984211D01C4DA8420ED01C4DA8420BD087
:103F20001B4DA84208D01B4DA84205D01A4DA842EF
:103F300002D01A4DA84203D122F44075CA682A4320
:103F40004D6922F080022A4302608A68C2620A68D0
:103F50008262A04201D0984201D109690163012126
:103F600041610169C90703D0016921F001010161C3
:103F7000F0BD0000000001400004004000080040C7
:103F8000000C00400004014000400140004401409A
:103F90000048014000180040001C00400020004084
:103FA00010B5846842EA032224F47F440A43224382
:103FB000826010BD826822F070020A4342F007015D
:103FC0008160704710B5036A046A24F0010404623A
:103FD000846924F0F00444EA021423F00A020A433C
:103FE0008461026210BD10B5036A046A24F01004F3
:103FF0000462846923F0A00324F4704444EA02328A
:1040000043EA01118261016210BD10B5806B00218D
:10401000C185C184FFF7BDFA10BD01680C3151E8BC
:10402000002F22F4907241E80023002BF5D10168A3
:10403000143151E8002F22F0010241E80023002B47
:10404000F5D1016B012909D101680C3151E8002F2C
:1040500022F0100241E80023002BF5D1202180F846
:10406000421000210163704708B590F842102229E0
:1040700001D0022008BD82684FF480539A4201D1DA
:10408000016921B1816A9A421BD04AB10AE00268F3
:10409000816A5268C2F308020A80816A891C08E0BA
:1040A000026972B10268526802F07F020A70816A86
:1040B000491C8162C18D491E0904090CC18503D0C8
:1040C0001BE002685268F1E70168CA6822F020022A
:1040D000CA600168CA6822F48072CA6001684A69CD
:1040E00022F001024A61202180F842100021416340
:1040F000026B012A03D0FFF753FC002008BD0163C7
:1041000001680C3151E8002F22F0100241E8002331
:10411000002BF5D101680A68D20602D50A68496801
:104120000091818DFFF734FAE7E7000070B504468F
:1041300000680169E26821F440511143016121697D
:10414000A068E26908436169114308432168CA68AD
:1041500049F20C639A430243CA6020684169A2692C
:1041600021F440711143416131492068884202D0F5
:104170003049884202D1FEF7CFFE01E0FEF7BCFED7
:10418000E2690023192164253226B2F5004F6268E6
:1041900028D0A0FB0101930F9200FCF7BBF8014669
:1041A000B0FBF5F06FF01802504301EB800006EB16
:1041B0000010B0FBF5F000F0F002B1FBF5F002EBFF
:1041C0000012B1FBF5F06FF01803584301EB8000CB
:1041D00006EB0010B0FBF5F000F00F002168104472
:1041E000886070BDA0FB010192185B41FCF792F85A
:1041F0000146B0FBF5F00201B1FBF5F06FF01803DA
:10420000584301EB800006EBC000B0FBF5F000F076
:10421000F80002EB4002B1FBF5F0584301EB8000DF
:1042200006EBC000B0FBF5F000F00700D6E7000099
:10423000001001400014014081628285C285002186
:104240004164222180F84210016921B10168CA68E5
:1042500042F48072CA6001684A6942F001024A6110
:104260000068C16841F02001C160002070472DE95D
:10427000F843984617460D460446089E24E0701CF5
:1042800022D0FEF7FFFCA0EB0800B0421AD8CEB156
:104290002068C168490717D5802D15D0402D13D04F
:1042A0000168C94309070FD40168002540680090E0
:1042B0002046FFF7B2FE0820606484F840500120D9
:1042C000BDE8F8830320FBE72068006835EA0000BA
:1042D00004D00020B842D2D00020F1E70120F9E755
:1042E0000148FFF757B900007C0900200148FFF79B
:1042F00051B90000C40900200148FFF74BB9000084
:104300000C0A0020FEE703B401984100009850EA2F
:10431000C12018BF04204A0D18BF40F0010040F230
:10432000FF72B2EB515F08BF40F00200012808BFE6
:10433000052002B070470907090E002804DB00F1D0
:10434000E02080F80014704700F00F0000F1E0203A
:1043500080F8141D704730380A2801D201207047B8
:1043600000207047FEF79CFCFFF75EFDFFF70CFC9A
:10437000FFF7E4FBFFF794FBFFF774FCFFF7C0FBCC
:10438000FFF720FCFFF752FCFFF788FC1E48FFF701
:1043900055F800211D48FEF7D3F801221C491D489D
:1043A000FFF7F0FA1C4D00241C492C70194800F04E
:1043B00053F81B4E1BA11D48FCF788F878B11CA1CF
:1043C0001A48FCF783F80028F4D180211748FCF73D
:1043D00033F83480287888B1FFF700FDEAE78021C0
:1043E0001248FCF729F83480287820B1FFF7F6FC52
:1043F0006420FEF73DFBFFF771FCDBE70EA10548EB
:1044000000F02AF8D6E7000034090020C008002098
:1044100015000020C40900200000002014460008F8
:10442000160000207374617274000000540A0020AA
:1044300073746F70000000004144432F44414320D7
:10444000444D41206973206E6F742072756E6E69E1
:104450006E670D0A000000000FB44FF4007130B514
:10446000ADF5017D054686AB6846859AFBF7CAFF28
:10447000044682B2FF2369462846FFF7BFFA0DF5CE
:10448000017D204630BC5DF814FB000010B500290A
:104490000AD00878002807D005487844FCF716F8B9
:1044A000002801D0002010BD0248784410BD000053
:1044B000E2010000DA01000010B500290AD00878F6
:1044C000002807D005487844FCF700F8002801D000
:1044D000002010BD0248784410BD0000D201000049
:1044E000CA0100004FF04070E1EE100A7047FCF77F
:1044F00062BCFCF797BD00061016000610160000FF
:104500000000000000000102030406070809000083
:104510000000010203040000000000000000000091
:1045200030313233343536373839414243444546E9
:1045300040305800303132333435363738396162E3
:1045400063646566403078000400000800000000E5
:1045500000000002000100001030313233343536E3
:1045600037383961626364656678700030313233A0
:1045700034353637383941424344454658500000B7
:1045800002400000000000A0000000000540000004
:10459000000000C8000000000C4000000000409C2B
:1045A00000000000194000000020BCBE0000000018
:1045B00034400000BFC91B8E00000004B54000005D
:1045C000504BCFD06607E2CF010000006C410000E5
:1045D0003E8251AADFEEA73401000000D94200005C
:1045E000DCB5A0E23A301F97FFFFFFFFB4450000A3
:1045F000FD25A0C8E9A3C14FFFFFFFFFFF3F00005B
:104600000000008000000000FF3F0000000000806C
:104610000000000053797374656D20696E697469D8
:10462000616C697A65642E2053656E64202773740B
:104630006172742720746F20626567696E2041443F
:10464000432F444143206F72202773746F702720DB
:10465000746F2068616C742E0D0A0000A847000872
:104660000000002018000000C4010008C047000836
:104670001800002020110000E00100081C000000CC
:1046800043000000F8FFFFFF0C0000000E000000D8
:104690000F0000002E000000100100004300000089
:1046A000F8FFFFFF00404040404040404040414153
:1046B00041414140404040404040404040404040F7
:1046C0004040404040050202020202020202020291
:1046D000020202020220202020202020202020028E
:1046E000020202020202909090909090101010101E
:1046F00010101010101010101010101010101010BA
:10470000020202020202888888888888080808084D
:104710000808080808080808080808080808080819
:104720000202020240000000000000000000000041
:104730000000000000000000000000000000000079
:104740000000000000000000000000000000000069
:104750000000000000000000000000000000000059
:104760000000000000000000000000000000000049
:104770000000000000000000000000000000000039
:104780000000000000000000000000000000000029
:104790000000000000000000000000000000000019
:1047A0000000000000000000000000000100000008
:1047B00010000000000000000024F40000000000D1
:040000050800018965
:00000001FF
