:020000040800F2
:1000000030100020290200083F2300088721000843
:100010003D230008690600080D28000800000000C4
:100020000000000000000000000000004323000862
:100030008D07000800000000412300084523000848
:10004000430200084302000843020008430200087C
:10005000430200084302000843020008430200086C
:10006000430200084302000843020008430200085C
:10007000430200084302000843020008430200084C
:10008000D1060008430200084302000843020008AA
:10009000430200084302000843020008430200082C
:1000A000430200084302000843020008430200081C
:1000B000430200084302000843020008430200080C
:1000C00043020008430200084302000843020008FC
:1000D0004302000843020008012800084302000808
:1000E00043020008430200084302000843020008DC
:1000F00043020008430200084302000843020008CC
:1001000043020008430200084302000843020008BB
:1001100043020008430200084302000843020008AB
:10012000DD060008430200084302000843020008FD
:10013000430200084302000843020008430200088B
:10014000430200084302000843020008430200087B
:10015000430200084302000843020008430200086B
:10016000430200084302000843020008430200085B
:100170004302000843020008430200080000000098
:10018000430200084302000800F002F800F03CF8C7
:100190000AA090E8000C82448344AAF10107DA45E2
:1001A00001D100F031F8AFF2090EBAE80F0013F0F8
:1001B000010F18BFFB1A43F0010318474427000042
:1001C00064270000103A24BF78C878C1FAD85207D3
:1001D00024BF30C830C144BF04680C6070470000C1
:1001E0000023002400250026103A28BF78C1FBD840
:1001F000520728BF30C148BF0B6070471FB502F0DF
:1002000069FB1FBD10B510BD00F01AF91146FFF7CC
:10021000F5FF02F00DFB00F038F903B4FFF7F2FF31
:1002200003BC00F03FF90000094880470948004737
:10023000FEE7FEE7FEE7FEE7FEE7FEE7FEE7FEE796
:10024000FEE7FEE704480549054A064B70470000F3
:10025000D923000889010008300A0020301000204E
:10026000300C0020300C002053EA020C00F06980B2
:100270002DE9F04B4FF00006002B1FBFB3FA83F5BA
:1002800003FA05F424FA05F65E4012BF1643B2FAEB
:1002900082F502FA05F4C5F120051EBF22FA05FC1D
:1002A00044EA0C04203556EA044C4FEA144418BFC3
:1002B000641C4FF000084FF00009904271EB030CF2
:1002C00039D3002919BFB1FA81F701FA07F6B0FA5C
:1002D00080F700FA07F6C7F120071EBF20FA07FCD7
:1002E00046EA0C062037B6FBF4FCA7EB0507103FE7
:1002F00007F01F0BCBF120060CFA0BFB2CFA06F6CD
:1003000044BFB3460026202FA4BF5E464FF0000B2B
:100310005BEA060C08BF4FF0010B19EB0B09ABFBB6
:10032000027C48EB0608C01B06FB02CC0BFB03CC8F
:1003300071EB0C01C1E70B46024641464846BDE859
:10034000F08B13B54FF000004FF00001AFF30080C9
:10035000BDE81C40704740EA010370B59B072ED1F1
:100360004FF00136042A2AD308C810C99D1B9D43AB
:10037000121F15EAC61517D0D8B2E1B2401A50EADA
:10038000056110D198B2A1B2401A50EA05410AD1D4
:1003900023F07F4024F07F41401A50EA052102D12A
:1003A000180EA0EB146070BDA342DBD018BA21BABE
:1003B000884201D9012070BD4FF0FF3070BD0AB9ED
:1003C000002070BD10F8013B11F8014B63B1A3424E
:1003D0000AD1521E08D010F8013B11F8014B1BB195
:1003E000A34201D1521EEDD1181B70BD4FF0000287
:1003F00000B5134694469646203922BFA0E80C501B
:10040000A0E80C50B1F12001BFF4F7AF090728BFF5
:10041000A0E80C5048BF0CC05DF804EB890028BF71
:1004200040F8042B08BF704748BF20F8022B11F09A
:10043000804F18BF00F8012B704770477047704716
:10044000754600F02BF8AE4605006946534620F08D
:100450000700854618B020B5FFF7F4FEBDE8204040
:100460004FF000064FF000074FF000084FF0000B70
:1004700021F00701AC46ACE8C009ACE8C009ACE823
:10048000C009ACE8C0098D46704710B50446AFF30B
:1004900000802046BDE81040FFF7BFBE004870470F
:1004A000CC09002001491820ABBEFEE7260002005F
:1004B000704710B50146806B026C12F0500F05D0EA
:1004C000026CD20626D500F02EFA10BD016C41F464
:1004D0000071016401688A6812F0405F17D1027EE2
:1004E000AAB9CA6A12F4700F02D08A6852050ED4F3
:1004F0004A6822F020024A60016C21F48071016494
:10050000016CC90403D4016C41F00101016400F0E5
:10051000E7F910BD806BC26CBDE81040084610477B
:1005200010B5806B40210164416C41F004014164CD
:1005300000F0F9F910BD10B5806B00F0F3F910BDB3
:10054000464910B54A6822F440324A604A68436816
:100550001A434A6001684A6822F480724A6001685E
:100560004A68036942EA03224A6001684A6822F045
:1005700040724A6001684A6883681A434A600168A9
:100580008A6822F400628A6001688A68C3681A4334
:100590008A60816A6FF07062D14201688A6822F0D5
:1005A00070628A6001688A680CD0836A1A438A6024
:1005B00001688A6822F040528A6001688A68C36ACA
:1005C0001A4301E022F040528A6001688A6822F0F2
:1005D00002028A6001688A68037E42EA43028A60F6
:1005E00090F82010002901684A680FD042F4006298
:1005F0004A6001684A6822F460424A6001684A68B9
:10060000174C436A04EB43331A4301E022F40062BF
:100610004A600168CA6A22F47002CA620168CA6A42
:10062000838B104C04EB03531A43CA6201688A6837
:1006300022F400728A6001688A6890F8303042EAD9
:1006400043228A6001688A6822F480628A600168B5
:100650008A68406942EA8020886010BD002301401A
:1006600000E0FFFF0000F0FFFEE710B5846B2046BE
:1006700000F0DCFA0120207110BD10B5846B20461B
:1006800000F0AAFA0120207110BD10B5846B20691A
:1006900040F004002061204600F0CAFA01202071D9
:1006A00010BD10B5846B206940F004002061204625
:1006B00000F094FA0120207110BD10B5806B00F09D
:1006C000B6FA10BD10B5806B00F087FA10BD0000BF
:1006D000014800F0DFBB0000DC080020014800F00A
:1006E000D9BB00006808002001681823CAB2103A7C
:1006F000B2FBF3F2054B6FF30901032A9B5CC36560
:1007000000D9091D8165084670470000DE280008F1
:1007100010B5014600208B698A6A4FF0C07453B14E
:10072000B3F5005F15D072B1012A0CD0022A0AD0AD
:10073000032A09D104E01AB1012A06D0022A03D102
:10074000C96AC90100D5012010BDC96AA142FAD009
:1007500010BD002AF7D0012AF2D0022AF3D0032AD2
:10076000F3D010BD30B50468256825F480252560D8
:10077000046863608368402B036803D09960006855
:10078000C26030BD9A600068C16030BD704772B60B
:10079000FEE7000078B50024009490F83C20012A80
:1007A00019D0012280F83C200A6807230568092A2D
:1007B00013D9EE680A3A02EB420293409E43EE6080
:1007C0000B788A680A3B03EB43039A400368DD68B1
:1007D0002A43DA6010E0022078BD2E6902EB420263
:1007E00093409E432E610B788A6803EB43039A4043
:1007F00003681D692A431A614A681F23072A13D216
:1008000005686E6B521E02EB820293409E436E633C
:100810000B790A885B1E92B203EB83039A4003684C
:100820005D6B2A435A6327E005680D2A12D22E6BAE
:10083000D21F02EB820293409E432E630B790A88FB
:10084000DB1F92B203EB83039A4003681D6B2A43BC
:100850001A6311E0EE6A0D3A02EB820293409E4366
:10086000EE620B790A880D3B92B203EB83039A4048
:100870000368DD6A2A43DA62164B0568144A9D4212
:1008800006D10D68122D03D1556845F480055560D9
:1008900005689D4218D10B68102B01D0112B13D184
:1008A000536843F400035360096810290CD10A49C6
:1008B0000A4A0968B1FBF2F101EB8101490000E04D
:1008C000491E00910029FBD180F83C40002078BDF2
:1008D00000230140002001401000002040420F0092
:1008E00000680649884208D1054901200870642340
:1008F000192204A10A4801F0F5BB7047002001400D
:100900000100002041444320636F6E766572736975
:100910006F6E20636F6D706C6574650D0A0000006A
:100920008409002070477047006C704770B5040060
:100930004FF0000503D0206C002610B107E0012025
:1009400070BD204600F01CF8666484F83C60206CA2
:10095000C00610D4206C20F4885040F002002064BF
:100960002046FFF7EDFD6664206C20F0020040F0A9
:100970000100206400E0012584F83C60284670BD39
:1009800070B586B0064614216846FFF72FFD1D4955
:100990003068884233D11C480025016841F48071D9
:1009A0000160006800F480700590174814380168F1
:1009B00041F0010101600068694600F00100059006
:1009C000012000900320CDE90105104800F0D4FB80
:1009D000104C0F48C4E900050015A560C4E9035098
:1009E000400060618000C4E906052562204665621A
:1009F00000F020FB08B1FFF7CAFEB463A66306B09F
:100A000070BD000000200140443802400000024058
:100A10001064024068080020F8B5044600200E4625
:100A2000009094F83C10012907D0012184F83C1073
:100A300021688B68DB0702D011E00220F8BD8B68CB
:100A400043F001038B604049404B0968B1FBF3F16F
:100A500001EB410100E0491E00910029FBD1216812
:100A60008B68DB0503D58B6823F480738B6021686A
:100A70008B68DB075DD0236C40F20165AB4343F428
:100A8000807323644968490505D5216C21F4005120
:100A900041F480512164216CC90404D5616C21F0BA
:100AA0000601616400E0606484F83C00A16B2948A1
:100AB000274DC863A16B28480864A16B2748C86408
:100AC00021686FF0220008602068416841F0806171
:100AD00041602068816841F480718160216813461B
:100AE00032464C31A06B00F00FFB68681C49C00611
:100AF000206806D0884224D1816811F0405F13D06D
:100B00001FE08842F8D0174A904203D1D1F804235D
:100B1000D206F1D0144A904213D1D1F8041301F057
:100B20001F011029E8D30CE0816841F08041816009
:100B300007E0206C40F010002064606C40F0010081
:100B400060640020F8BD00001000002040420F004B
:100B500000230140B3040008370500082105000800
:100B600000200140002101400022014010B5044650
:100B7000002094F83C1001290CD0012184F83C108D
:100B800021688A6822F001028A6021688A68D20797
:100B900002D01DE0022010BD8A6822F480728A60B3
:100BA000A16B91F83520022A07D1084600F016F90A
:100BB00018B1216C41F04001216421684A6822F09B
:100BC00080624A60216C21F4885141F00101216466
:100BD000002184F83C1010BD70477047704770B515
:100BE00000B3F9B14379012B1ED0012646710223CF
:100BF000037105682C6802F0100340F6FE729A40FB
:100C00009443D1E900210A439A4022432A600168B3
:100C10000A68C0249C40A2430A6006710021417109
:100C2000084670BD012070BD022070BD704770473E
:100C3000704770B5040003D02079002510B105E09D
:100C4000012070BD6571204600F008F80220207177
:100C5000256101202071002070BD000070B586B0B4
:100C6000054614216846FFF7C1FB1F4928688842E2
:100C700037D11E480026016841F00051016000682C
:100C800000F00050059019481038016841F001014A
:100C900001600068694600F0010005901020009096
:100CA0000320CDE90106124800F066FA124C114803
:100CB00020604FF0606060604020C4E902060001DF
:100CC0002061400060618000A0614011C4E9070616
:100CD0002046666200F0AEF908B1FFF758FDAC603F
:100CE000A56306B070BD00000074004040380240AB
:100CF0000000024088600240DC0800202DE9F0413D
:100D00000400069817460D461BD0617901291BD0B7
:100D10000126667102212171C5B1E2682949D163BA
:100D2000E26829491164E2682849D16421680A68A7
:100D300042F080520A6040B32268042828D01C3256
:100D400027E00120BDE8F0810220FBE7A2682049EE
:100D5000D163A2681F491164A2681F49D164216848
:100D60000A6842F480520A6020B12268042804D044
:100D7000103203E02268083200E00C32206801687B
:100D800041F400510160A06809E02268143200E0DB
:100D900018322068016841F000510160E06839466E
:100DA00000F0B2F90021617120B1216941F0040124
:100DB0002161C7E721680A6805F010039E403243AD
:100DC0000A60BFE77B060008C5060008A306000806
:100DD0006B060008BB0600088B0600082DE9F041F1
:100DE0000446876D00F0C0FA064694F835000025E9
:100DF000022806D08020606584F834500120BDE8C8
:100E0000F0812068016821F01601016020684169C5
:100E100021F080014161206C08B9A06C20B12068EC
:100E2000016821F0080101602068016821F00101DA
:100E300001600CE000F098FA801B052807D92020FB
:100E40006065032084F8350084F83450D7E72068C3
:100E50000068C007EED194F85C103F208840B8606D
:100E6000012084F8350084F834500020C7E790F85A
:100E70003510022903D080214165012070470521EA
:100E800080F835100068016821F001010160002040
:100E9000704700002DE9F84304464FF00009CDF8F3
:100EA000009063484FF41651A56D0068B0FBF1F750
:100EB0002E6894F85C10082000FA01F131420FD03E
:100EC00021680A6852070BD50A6822F004020A60FA
:100ED00094F85C108840A860606D40F00100606587
:100EE00094F85C104FF0010808FA01F0304208D085
:100EF00021684969090604D5A860606D40F00200C8
:100F0000606594F85C1004208840304208D0216865
:100F10000968890704D5A860606D40F00400606529
:100F200094F85C1010208840304218D0216809687D
:100F3000090714D5A86020680168490304D5006832
:100F4000000308D5A16C07E00168C90503D4016856
:100F500021F008010160216C09B12046884794F80E
:100F60005C1020208840304231D021680968C906D1
:100F70002DD5A86094F8350005282068016806D0B2
:100F8000490347D5006800031DD4616C1CE021F0C3
:100F9000160101602068416921F080014161206CE7
:100FA00008B9A06C20B12068016821F00801016037
:100FB00094F85C103F208840A86084F8358084F85D
:100FC0003490216D1FE0E16B09B120468847606DC8
:100FD00000282BD0606DC00714D0052084F83500A0
:100FE0002068016821F0010101600098401C009018
:100FF000B84203D820680068C007F6D184F835806D
:1010000084F83490E16C002910D001B02046BDE88E
:10101000F04308470168C905D5D4016821F01001E3
:10102000016084F8358084F83490CCE7BDE8F8831B
:10103000100000202DE9F041044600F095F9064625
:101040005CB1022084F83500002584F83450206813
:10105000016821F0010101600DE00120BDE8F0818F
:1010600000F082F9801B052805D920206065032047
:1010700084F83500F2E720680068C007F0D12268E4
:10108000116820480140D4E901031843D4E903362C
:101090003343184363691843A3691843E36918434A
:1010A000236A18430843616A042903D1D4E90B1366
:1010B00019430843106020684069666A20F0070100
:1010C00030460E43012704280CD1A06A0643E06A8B
:1010D00040B12046FFF71CFB20B14020606584F83A
:1010E0003570BAE7206846612046FFF7FDFA94F8AC
:1010F0005C203F2191408160656584F83570002057
:10110000ACE700003F8010F02DE9F0410446866D09
:1011100090F83400002501280DD0012084F8340017
:1011200094F835700020012F07D084F83400022590
:101130002846BDE8F0810220FBE7022784F83570DD
:1011400060652046FFF70EFB94F85C103F20884056
:10115000B0602068016841F016010160206C20B188
:101160002068016841F0080101602068016841F0D1
:1011700001010160DCE700002DE9F84FDFF8BCA1B8
:101180000022012503264FF00F090AF1040BAAF1F2
:10119000040E00BF0B6805FA02F42340A34270D18D
:1011A0000F7907F00307012F01D0022F16D18768AE
:1011B0004FEA420806FA08FC27EA0C07D1F80CC0EF
:1011C0000CFA08FC4CEA070CC0F808C04768A743B3
:1011D0000C79C4F3001494403C4344600C79E4431C
:1011E000A4070AD0C4684FEA420C06FA0CF7BC43C5
:1011F0008F6807FA0CF72743C7600C7904F00304E3
:10120000022C12D1D40800EB840CDCF820405707E4
:10121000FF0E09FA07F824EA0804D1F8108008FA4A
:1012200007F848EA0408CCF8208004684FEA420C2A
:1012300006FA0CF7BC430F7907F0030707FA0CF71F
:10124000274307604C6814F4403F70D03C4C27683B
:1012500047F480472760246822F0030704F48044A1
:101260000094384C07EB040CDCF8084897074FEA69
:10127000177809FA08F7BC43334FB84202D1002768
:1012800024E054E0314FB84201D101271EE0304F35
:10129000B84201D1022719E02E4FB84201D10327ED
:1012A00014E02D4FB84201D104270FE02B4FB84274
:1012B00001D105270AE02A4FB84201D1062705E0EF
:1012C000284FB84201D1072700E0082707FA08F79E
:1012D0002743CCF80878DAF800405746D1F804C024
:1012E0009C435FEACC2C00D51C433C60DBF80040FB
:1012F0005F46D1F804C09C435FEA8C2C00D51C43A8
:101300003C60DEF800407746D1F804C09C435FEAB9
:101310008C3C00D51C433C60084F083F3C68D1F82A
:1013200004C09C435FEACC3C00D51C433C60521C8B
:10133000102AFFF42FAFBDE8F88F0000083C0140F1
:1013400044380240003001400000024000040240E6
:1013500000080240000C024000100240001402404D
:1013600000180240001C02400148806870470000DD
:1013700004000020024881680278114481607047AF
:10138000040000200B4810B5016841F400710160B1
:10139000016841F480610160016841F4807101607D
:1013A000032000F06FF80F2000F006F800F024F89A
:1013B000002010BD003C024070B50D4D04464FF4B6
:1013C0007A712878B1FBF0F00A490968B1FBF0F0B6
:1013D00000F00AFB48B9102C07D200222146501E0B
:1013E00000F030F800206C6070BD012070BD00007E
:1013F00004000020100000200A4808B5016841F4EC
:1014000080410160006800F4804000900548001FA2
:10141000016841F080510160006800F08050009048
:1014200008BD000044380240002809DB00F01F021C
:10143000012191404009800000F1E020C0F8001136
:1014400070470000F0B40E4B1B680C46C3F3022338
:10145000C3F10705042D00D90425191D072901D260
:10146000002300E0DB1E012606FA05F1491E21409B
:1014700099409E40761E16403143F0BC01F0C7B93A
:101480000CED00E0064900F0070208684FF6FF0384
:10149000184040EA0220034A1043086070470000E9
:1014A0000CED00E00000FA052DE9F0470E460500BE
:1014B00065D0DFF81481D8F80000F7B200F007001B
:1014C000B04207D288F80070D8F8000000F007009A
:1014D000B04254D128683D4C810712D5400703D54E
:1014E000206840F4E05020602878000703D5206889
:1014F00040F4604020602068A96820F0F0000843B4
:1015000020602878C0072DD0304968680839012844
:1015100012D0022813D0032811D0096889070029A6
:101520002DDA216821F0030101432160FFF71CFF40
:10153000814641F2883A0EE009688903EFE70968BD
:101540008901ECE7FFF710FFA0EB0901514502D933
:101550000320BDE8F0872068696800F00C00B0EB5C
:10156000810FEFD1D8F80010404601F00701B142D9
:1015700007D90770006800F00700B04201D00120D1
:10158000E7E72878400705D52068E96820F4E050AF
:10159000084320602878000706D52068296920F4D0
:1015A000604040EAC100206000F038F82168084A35
:1015B000C1F30311515CC840064908600648006841
:1015C000FFF7FAFE0020C4E7003C02400838024062
:1015D000E628000810000020080000200448054903
:1015E00000680968044AC1F38221515CC840704711
:1015F0001000002008380240F62800080448054979
:1016000000680968044AC1F34231515CC840704720
:101610001000002008380240F6280008154810B5D0
:10162000006810F00C02144813D04110042A0FD0A7
:10163000082A0ED10F4C241F2268236802F03F02B3
:101640005B0207D52068C0F38810A0FB010106E00B
:10165000084610BD2168C1F38811A1FB00010023D9
:10166000FEF702FE2168C1F30141491C4900B0FBAD
:10167000F1F010BD083802400024F4002DE9F84FC5
:1016800004006ED02078DFF84C93C007A9F1040560
:101690004AD009F104000168C1F38101012908D091
:1016A0000068C0F3810002280AD1D9F80000400286
:1016B00006D52868800337D560680028E1D033E07C
:1016C0006068B0F5803F10D0B0F5A02F286810D02A
:1016D00020F480302860286820F48020286060682A
:1016E000A8B1FFF741FE06460DE0286840F48030BF
:1016F000F4E740F480202860F7E700BFFFF734FEEE
:10170000801B642873D828688003F7D50CE0FFF7A6
:101710002BFE064605E000BFFFF726FE801B64286F
:10172000F0D828688003F7D42078DFF8AC828007EF
:101730004FF0000A3ED5A748001D016811F00C0FBC
:1017400008D00068C0F3810002280BD1D9F800004E
:10175000400207D42868800716D5E068012800D128
:1017600012E033E1E068B8B10120C8F80000FFF7EB
:10177000FBFD064605E000BFFFF7F6FD801B0228D3
:10178000C0D828688007F7D52868216920F0F800BC
:1017900040EAC10028600DE0C8F800A0FFF7E4FDB2
:1017A000064604E0FFF7E0FD801B02281FD82868EA
:1017B0008007F7D42078000722D5864F87486169D3
:1017C000703771B101210160FFF7CEFD064604E0DC
:1017D000FFF7CAFD801B022809D838688007F7D5B3
:1017E0000EE0C0F800A0FFF7BFFD064605E082E06E
:1017F000FFF7BAFD801B02287DD838688007F7D430
:101800002078400768D5DFF8CCB100270BF13C0BFE
:10181000DBF80000C0000BD4DBF8001041F0805171
:10182000CBF80010DBF80000012700F0805000909A
:101830006B4E3068C00510D4306840F48070306062
:10184000FFF792FD009005E0FFF78EFD0099401A2A
:10185000022850D83068C005F6D55E4EA0686C36B8
:1018600001280FD00528306810D020F0010030602A
:10187000306820F004003060A068B8B1FFF774FD54
:1018800000900FE0306840F00100F4E740F0040001
:101890003060F7E7FFF768FD0099411A41F28830A0
:1018A000814266D830688007F4D50EE0FFF75CFD12
:1018B000009007E0FFF758FD0099411A41F2883087
:1018C000814256D830688007F4D42FB1DBF800107D
:1018D00021F08051CBF80010A069C8B33D49091D23
:1018E0000968C1F3810102294AD00228504607D075
:1018F000C8F8600000E03CE0FFF736FD04463BE03E
:101900004746C8F86000FFF72FFD064605E000BF18
:10191000FFF72AFD801B02282BD828688001F7D406
:10192000D4E907010843A16A2E4A490802EB0141A4
:10193000626A41EA8211084394F82C1040EA01617E
:10194000C9F8001001203866FFF70EFD044606E0D6
:101950003EE000BFFFF708FD001B022809D82868F9
:101960008001F7D534E000BFFFF7FEFC001B022822
:1019700002D90320BDE8F88F28688001F4D427E05D
:101980000128F7D0D9F80000E26900F48001914203
:101990001CD1226A00F03F01914217D147F6C07175
:1019A000626A0140B1EB821F10D1A26A4FF0FF338F
:1019B00000F4403103EB5202B1EB024F06D194F830
:1019C0002C1000F07060B0EB016F01D00120D1E766
:1019D0000020CFE70438024000004742800E474213
:1019E000007000400000FFFF10B5401EB0F1807F86
:1019F00001D3012010BD4FF0E02460610F2160177A
:101A000000F005FF0020A06107202061002010BD2C
:101A100070B590F83C20012A32D0012480F83C4077
:101A2000022280F83D2003685A689D6822F0700603
:101A30000A6832435A60134B02689A4214D0B2F1DA
:101A4000804F11D0104B9A420ED0104B9A420BD0BF
:101A50000F4B9A4208D00F4B9A4205D00E4B9A4238
:101A600002D00E4B9A4204D1496825F080031943F5
:101A7000916080F83D40002180F83C10084670BD20
:101A8000022070BD0000014000040040000800403A
:101A9000000C0040000401400040014000180040DC
:101AA00010B5040003D094F83D0010B107E0012008
:101AB00010BD002084F83C00204600F01FF80220F2
:101AC00084F83D00211D206800F08EFC012084F880
:101AD000460084F83E0084F83F0084F8400084F813
:101AE000410084F8420084F8430084F8440084F8FC
:101AF000450084F83D00002010BD000008B50068D6
:101B0000B0F1804F08D10548016841F00101016042
:101B1000006800F00100009008BD0000403802405D
:101B200090F83D10012901D001207047022180F872
:101B30003D1000681149884214D0B0F1804F11D097
:101B40000F4988420ED00F4988420BD00E49884277
:101B500008D00E49884205D00D49884202D00D496F
:101B6000884204D1816801F00701062903D0016889
:101B700041F00101016000207047000000000140B9
:101B80000004004000080040000C00400004014038
:101B9000004001400018004001680A6A41F2111338
:101BA0001A4207D10A6A9B101A4203D10A6822F02E
:101BB00001020A60012180F83D100020704770B5D5
:101BC000044690F83C000025012817D0012684F82F
:101BD0003C60022084F83D002068826822F0770291
:101BE00022F47F4282600868502838D00DDC20281B
:101BF0004FD005DC90B3102811D14AE0022070BD0F
:101C0000302846D040280AD13BE060282FD07028E9
:101C10000DD0B0F5805F03D0B0F5005F12D0012584
:101C200084F83D60002084F83C00284670BDCB68F5
:101C3000D1E90121206800F043FC2068816841F06F
:101C4000770109E0CB68D1E90121206800F038FC78
:101C50002068816841F480418160E1E719E0CA6849
:101C60004968206800F03EFC5021206806E0CA6800
:101C70004968206800F047FC6021206800F02AFCD9
:101C8000CEE7CA684968206800F02CFC4021206833
:101C9000F4E7226801461046F0E7704770470000FD
:101CA000F8B5016804460868CA684B6910F00F0F60
:101CB0004FF0000559D003F0010602F49077374346
:101CC00065D0C10705D0D10503D5616C41F0010194
:101CD0006164410705D5D90703D0616C41F0020169
:101CE0006164810705D5D90703D0616C41F0040117
:101CF0006164010707D502F02001314303D0616C14
:101D000041F008016164616C00293AD0800604D575
:101D1000900602D5204600F037FC20684069616CCF
:101D2000C0F38010090700D460B3204600F005FC22
:101D300020684069400621D52068143050E8001F13
:101D400021F0400140E80012002AF5D1E06BA8B173
:101D50006E490165E06BFFF78AF8002811D0E06B4F
:101D6000016D01B0BDE8F040084783060FD593062A
:101D70000DD52046BDE8F84000F006BC2046FFF730
:101D80008DFFF8BD2046FFF789FF6564F8BD266B1F
:101D90002023012E7DD1C6067BD5D60679D50868CD
:101DA0004868009048694FF00206400641D5E16B53
:101DB000086840680004000CE8D0A28D8242E5D992
:101DC000E085C869B0F5807F2DD020680C3050E8E0
:101DD000001F21F4807140E80012002AF5D120682C
:101DE000143050E8001F21F0010140E80012002AE1
:101DF000F5D12068143050E8001F21F0400140E880
:101E00000012002AF5D184F84230256320680C3096
:101E100050E8001F21F0100140E80012002AF5D11F
:101E2000E06BFEF7DBFF6663A08DE18D401A81B2A7
:101E30002AE0A08DE18D401A81B2E08D0028A5D066
:101E40000029A3D022680C3252E8000F20F49070D1
:101E500042E80007002FF5D12068143050E8002F29
:101E600022F0010240E80027002FF5D184F842302B
:101E7000256320680C3050E8002F22F0100240E863
:101E80000023002BF5D166632046FFF706FFF8BD5F
:101E9000FFE705062BD5150629D594F84100212822
:101EA000F5D1A068B0F5805F01D12069B0B1206A9A
:101EB000411C2162216800784860E08C401E0004CB
:101EC000000CE084E3D12068C16821F08001C1608A
:101ED0002068C16841F04001C160D8E7206A0088ED
:101EE000C0F308004860206A801C2062E5E74006D5
:101EF000CDD55006CBD5CA68204622F04002CA6034
:101F000084F8413000F03EF9C1E700002B250008BD
:101F100070B5040004D094F84100002510B106E02B
:101F2000012070BD84F84050204600F023F82420A2
:101F300084F841002068C16821F40051C160204646
:101F400000F084FB2068016921F490410161206860
:101F5000416921F02A0141612068C16841F40051C2
:101F6000C1606564202084F8410084F84200656304
:101F7000002070BD10B586B0044614216846FEF7F7
:101F800035FA17492068884228D11648002102688E
:101F900042F400320260006800F4003005901148FD
:101FA0001038026842F001020260006800F001008F
:101FB00005900C2000900220CDE901010320039040
:101FC0000720049069460848FFF7D6F8002211461A
:101FD0002620FFF737FA2620FFF726FA06B010BDB5
:101FE00000440040403802400000024090F8423077
:101FF000202B01D00220704721B11AB100230363C6
:1020000000F0AABB0120704770B500681E498842E5
:1020100038D11E4C00252078092828D21C490A787E
:102020000A54401CC0B22070052821D30844052260
:1020300018A1401FFEF78FF9C8B91848FEF796FDA2
:102040001648FEF771FC012803D064230F2214A167
:102050000AE04FF4806216491048FEF7DDFC4FF0AD
:10206000640360B1112213A1174800F03BF82570FA
:10207000BDE87040012206491348FFF7B7BF16229A
:1020800012A1F1E770BD00000044004000000020F4
:102090001400002073746172740000002008002096
:1020A000414443206E6F742072656164790D0A00AB
:1020B00020000020414443207374617274206661E3
:1020C000696C65640D0A00008409002041444320C6
:1020D00073616D706C696E6720737461727465648E
:1020E0000D0A00002DE9F843044690F84100984697
:1020F00016460D46202802D00220BDE8F88385B19F
:102100007EB100206064212084F84100FFF72CF9A3
:10211000A6848146E684A0682027B0F5805F02D0BF
:1021200003E00120E9E7206910B12E4600250EE00A
:1021300000260CE08021204600F029FBA8B9C6B19A
:1021400016F8010B21684860E08C401EE084E08CAA
:102150004B464FF00002CDF800800028EAD14FF046
:102160004001204600F013FB40B184F84170032089
:10217000C3E735F8020BC0F30800E3E784F84170C9
:102180000020BAE77047FEE77FB5002415480094A9
:102190000194029412490394C0E90014846004611C
:1021A000047680F820404FF08051C1620125C5615E
:1021B0004FF0C061C460816280F830504561FEF725
:1021C000B5FB08B1FEF7E3FACDE9004569460548DD
:1021D0000294FEF7DFFA002801D0FEF7D8FA7FBD9F
:1021E00000200140200800201CB500240C49009468
:1021F0000A48019408600846FEF71BFD08B1FEF787
:10220000C6FA2420CDE90004002269460448FEF7FE
:10221000E6FC002801D0FEF7BAFA1CBD00740040AD
:10222000C8080020114808B5016841F48001016028
:10223000016801F480010091016841F4001101601E
:102240000068002200F40010009011461020FFF7F3
:10225000F9F81020FFF7E8F8002211463820FFF7C0
:10226000F1F8BDE808403820FFF7DEB8303802400A
:10227000094808B5016841F080010160016801F07A
:1022800080010091016841F001010160006800F0E7
:102290000100009008BD00003038024010B586B043
:1022A00000241748009401940294039404944FF07E
:1022B00080410594C0E9001440F60F61C0E9024175
:1022C000802104618161FFF7EBFB08B1FEF75FFA43
:1022D0004FF48050009069460948FFF770FC08B140
:1022E000FEF755FA2020CDE9040404A90448FFF7BD
:1022F0008FFB002801D0FEF74AFA06B010BD00009F
:102300003C0900200C4810B50A4901604FF4E13146
:102310004160002181600C22C160C0E9041281612A
:10232000C161FFF7F5FD002803D0BDE81040FEF7BE
:102330002EBA10BD0044004084090020FEE7FEE7ED
:1023400070477047FFF716B830B593B03021684634
:10235000FEF74CF814210CA8FEF748F81C4800259D
:10236000016841F080510160006800F080501190D8
:102370001848016841F4804101600068022400F4BB
:102380008040119001200090000401908001CDE96F
:10239000064008AA0420482182E813000B906846F2
:1023A000FFF76CF908B172B6FEE70CA90F2081E8BF
:1023B00031004FF48050CDE90F0502210CA8FFF742
:1023C00073F8002801D072B6FEE713B030BD0000EC
:1023D00040380240007000400248016841F470013A
:1023E0000160704788ED00E0F0B50268294C2A4D85
:1023F0002A4E2B4F2B4B4FF0804CA04209D060450A
:1024000007D0A84205D0B04203D0B84201D09842CC
:1024100004D122F0700E4A6842EA0E02A0421BD09C
:10242000604519D0A84217D0B04215D0B84213D099
:10243000984211D01C4DA8420ED01C4DA8420BD082
:102440001B4DA84208D01B4DA84205D01A4DA842EA
:1024500002D01A4DA84203D122F44075CA682A431B
:102460004D6922F080022A4302608A68C2620A68CB
:102470008262A04201D0984201D109690163012121
:1024800041610169C90703D0016921F001010161BE
:10249000F0BD0000000001400004004000080040C2
:1024A000000C004000040140004001400044014095
:1024B0000048014000180040001C0040002000407F
:1024C00010B5846842EA032224F47F440A4322437D
:1024D000826010BD826822F070020A4342F0070158
:1024E0008160704710B5036A046A24F00104046235
:1024F000846924F0F00444EA021423F00A020A4337
:102500008461026210BD10B5036A046A24F01004ED
:102510000462846923F0A00324F4704444EA023284
:1025200043EA01118261016210BD10B5806B002188
:10253000C185C184FFF7B2FB10BD01680C3151E8C1
:10254000002F22F4907241E80023002BF5D101689E
:10255000143151E8002F22F0010241E80023002B42
:10256000F5D1016B012909D101680C3151E8002F27
:1025700022F0100241E80023002BF5D1202180F841
:10258000421000210163704708B590F842102229DB
:1025900001D0022008BD82684FF480539A4201D1D5
:1025A000016921B1816A9A421BD04AB10AE00268EE
:1025B000816A5268C2F308020A80816A891C08E0B5
:1025C000026972B10268526802F07F020A70816A81
:1025D000491C8162C18D491E0904090CC18503D0C3
:1025E0001BE002685268F1E70168CA6822F0200225
:1025F000CA600168CA6822F48072CA6001684A69C8
:1026000022F001024A61202180F84210002141633A
:10261000026B012A03D0FFF7F7FC002008BD01631D
:1026200001680C3151E8002F22F0100241E800232C
:10263000002BF5D101680A68D20602D50A684968FC
:102640000091818DFFF729FBE7E7000070B5044694
:1026500000680169E26821F4405111430161216978
:10266000A068E26908436169114308432168CA68A8
:1026700049F20C639A430243CA6020684169A26927
:1026800021F440711143416131492068884202D0F0
:102690003049884202D1FEF7B1FF01E0FEF79EFF0C
:1026A000E2690023192164253226B2F5004F6268E1
:1026B00028D0A0FB0101930F9200FDF7D5FD014644
:1026C000B0FBF5F06FF01802504301EB800006EB11
:1026D0000010B0FBF5F000F0F002B1FBF5F002EBFA
:1026E0000012B1FBF5F06FF01803584301EB8000C6
:1026F00006EB0010B0FBF5F000F00F00216810446D
:10270000886070BDA0FB010192185B41FDF7ACFD34
:102710000146B0FBF5F00201B1FBF5F06FF01803D4
:10272000584301EB800006EBC000B0FBF5F000F071
:10273000F80002EB4002B1FBF5F0584301EB8000DA
:1027400006EBC000B0FBF5F000F00700D6E7000094
:10275000001001400014014081628285C285002181
:102760004164222180F84210016921B10168CA68E0
:1027700042F48072CA6001684A6942F001024A610B
:102780000068C16841F02001C160002070472DE958
:10279000F843984617460D460446089E24E0701CF0
:1027A00022D0FEF7E1FDA0EB0800B0421AD8CEB16E
:1027B0002068C168490717D5802D15D0402D13D04A
:1027C0000168C94309070FD40168002540680090DB
:1027D0002046FFF7B2FE0820606484F840500120D4
:1027E000BDE8F8830320FBE72068006835EA0000B5
:1027F00004D00020B842D2D00020F1E70120F9E750
:102800000148FFF74DBA000084090020FEE70907E0
:10281000090E002804DB00F1E02080F80014704766
:1028200000F00F0000F1E02080F8141D7047000058
:1028300008B5FEF7A7FDFFF787FDFFF719FDFFF7C6
:10284000F1FCFFF7A1FCFFF75DFDFFF7CDFCFFF703
:1028500025FD1348FFF764F9012212491248FFF7DA
:10286000C5FB00250F4A4FF480630C3229460F4800
:102870000095FEF743FA08B172B6FEE70C48FEF782
:1028800075F90748FFF788F90A4C20780028FCD032
:1028900064231A2208A10448FFF724FC2570F4E7FA
:1028A0003C0900201400002084090020C8080020F2
:1028B0002008002001000020446174612070726FC4
:1028C00063657373696E6720636F6D706C657465A3
:1028D0000D0A00004FF04070E1EE100A704700064C
:1028E0001016000610160000000000000000010293
:1028F00003040607080900000000010203040000A9
:10290000202900080000002014000000C401000875
:1029100034290008140000201C100000E001000809
:102920000000000001000000100000000000000096
:042930000024F4008B
:040000050800018965
:00000001FF
